{
  "_format": "hh-sol-artifact-1",
  "contractName": "ANONS",
  "sourceName": "contracts/ANONS.sol",
  "abi": [
    {
      "anonymous": false,
      "inputs": [
        {
          "indexed": true,
          "internalType": "address",
          "name": "owner",
          "type": "address"
        },
        {
          "indexed": true,
          "internalType": "address",
          "name": "approved",
          "type": "address"
        },
        {
          "indexed": true,
          "internalType": "uint256",
          "name": "tokenId",
          "type": "uint256"
        }
      ],
      "name": "Approval",
      "type": "event"
    },
    {
      "anonymous": false,
      "inputs": [
        {
          "indexed": true,
          "internalType": "address",
          "name": "owner",
          "type": "address"
        },
        {
          "indexed": true,
          "internalType": "address",
          "name": "operator",
          "type": "address"
        },
        {
          "indexed": false,
          "internalType": "bool",
          "name": "approved",
          "type": "bool"
        }
      ],
      "name": "ApprovalForAll",
      "type": "event"
    },
    {
      "anonymous": false,
      "inputs": [
        {
          "indexed": false,
          "internalType": "string",
          "name": "newBaseURI",
          "type": "string"
        }
      ],
      "name": "BaseURIUpdated",
      "type": "event"
    },
    {
      "anonymous": false,
      "inputs": [
        {
          "indexed": false,
          "internalType": "uint256",
          "name": "newMax",
          "type": "uint256"
        }
      ],
      "name": "MaxPerWalletUpdated",
      "type": "event"
    },
    {
      "anonymous": false,
      "inputs": [
        {
          "indexed": true,
          "internalType": "address",
          "name": "minter",
          "type": "address"
        },
        {
          "indexed": true,
          "internalType": "uint256",
          "name": "tokenId",
          "type": "uint256"
        }
      ],
      "name": "Mint",
      "type": "event"
    },
    {
      "anonymous": false,
      "inputs": [
        {
          "indexed": false,
          "internalType": "uint256",
          "name": "newPrice",
          "type": "uint256"
        }
      ],
      "name": "MintPriceUpdated",
      "type": "event"
    },
    {
      "anonymous": false,
      "inputs": [
        {
          "indexed": true,
          "internalType": "address",
          "name": "previousOwner",
          "type": "address"
        },
        {
          "indexed": true,
          "internalType": "address",
          "name": "newOwner",
          "type": "address"
        }
      ],
      "name": "OwnershipTransferred",
      "type": "event"
    },
    {
      "anonymous": false,
      "inputs": [
        {
          "indexed": false,
          "internalType": "address",
          "name": "account",
          "type": "address"
        }
      ],
      "name": "Paused",
      "type": "event"
    },
    {
      "anonymous": false,
      "inputs": [
        {
          "indexed": true,
          "internalType": "address",
          "name": "from",
          "type": "address"
        },
        {
          "indexed": true,
          "internalType": "address",
          "name": "to",
          "type": "address"
        },
        {
          "indexed": true,
          "internalType": "uint256",
          "name": "tokenId",
          "type": "uint256"
        }
      ],
      "name": "Transfer",
      "type": "event"
    },
    {
      "anonymous": false,
      "inputs": [
        {
          "indexed": false,
          "internalType": "address",
          "name": "account",
          "type": "address"
        }
      ],
      "name": "Unpaused",
      "type": "event"
    },
    {
      "inputs": [],
      "name": "MAX_SUPPLY",
      "outputs": [
        {
          "internalType": "uint256",
          "name": "",
          "type": "uint256"
        }
      ],
      "stateMutability": "view",
      "type": "function"
    },
    {
      "inputs": [
        {
          "internalType": "address",
          "name": "to",
          "type": "address"
        },
        {
          "internalType": "uint256",
          "name": "tokenId",
          "type": "uint256"
        }
      ],
      "name": "approve",
      "outputs": [],
      "stateMutability": "nonpayable",
      "type": "function"
    },
    {
      "inputs": [
        {
          "internalType": "address",
          "name": "owner",
          "type": "address"
        }
      ],
      "name": "balanceOf",
      "outputs": [
        {
          "internalType": "uint256",
          "name": "",
          "type": "uint256"
        }
      ],
      "stateMutability": "view",
      "type": "function"
    },
    {
      "inputs": [
        {
          "internalType": "address",
          "name": "user",
          "type": "address"
        },
        {
          "internalType": "bytes32[]",
          "name": "merkleProof",
          "type": "bytes32[]"
        }
      ],
      "name": "canMint",
      "outputs": [
        {
          "internalType": "bool",
          "name": "",
          "type": "bool"
        }
      ],
      "stateMutability": "view",
      "type": "function"
    },
    {
      "inputs": [
        {
          "internalType": "uint256",
          "name": "tokenId",
          "type": "uint256"
        }
      ],
      "name": "getApproved",
      "outputs": [
        {
          "internalType": "address",
          "name": "",
          "type": "address"
        }
      ],
      "stateMutability": "view",
      "type": "function"
    },
    {
      "inputs": [
        {
          "internalType": "bytes32",
          "name": "initialMerkleRoot",
          "type": "bytes32"
        },
        {
          "internalType": "string",
          "name": "name",
          "type": "string"
        },
        {
          "internalType": "string",
          "name": "symbol",
          "type": "string"
        },
        {
          "internalType": "uint256",
          "name": "initialMintPrice",
          "type": "uint256"
        },
        {
          "internalType": "uint256",
          "name": "initialMaxPerWallet",
          "type": "uint256"
        },
        {
          "internalType": "string",
          "name": "initialBaseURI",
          "type": "string"
        }
      ],
      "name": "initialize",
      "outputs": [],
      "stateMutability": "nonpayable",
      "type": "function"
    },
    {
      "inputs": [
        {
          "internalType": "address",
          "name": "owner",
          "type": "address"
        },
        {
          "internalType": "address",
          "name": "operator",
          "type": "address"
        }
      ],
      "name": "isApprovedForAll",
      "outputs": [
        {
          "internalType": "bool",
          "name": "",
          "type": "bool"
        }
      ],
      "stateMutability": "view",
      "type": "function"
    },
    {
      "inputs": [],
      "name": "maxPerWallet",
      "outputs": [
        {
          "internalType": "uint256",
          "name": "",
          "type": "uint256"
        }
      ],
      "stateMutability": "view",
      "type": "function"
    },
    {
      "inputs": [],
      "name": "merkleRoot",
      "outputs": [
        {
          "internalType": "bytes32",
          "name": "",
          "type": "bytes32"
        }
      ],
      "stateMutability": "view",
      "type": "function"
    },
    {
      "inputs": [
        {
          "internalType": "bytes32[]",
          "name": "merkleProof",
          "type": "bytes32[]"
        }
      ],
      "name": "mint",
      "outputs": [],
      "stateMutability": "payable",
      "type": "function"
    },
    {
      "inputs": [],
      "name": "mintPrice",
      "outputs": [
        {
          "internalType": "uint256",
          "name": "",
          "type": "uint256"
        }
      ],
      "stateMutability": "view",
      "type": "function"
    },
    {
      "inputs": [
        {
          "internalType": "address",
          "name": "",
          "type": "address"
        }
      ],
      "name": "mintedPerWallet",
      "outputs": [
        {
          "internalType": "uint256",
          "name": "",
          "type": "uint256"
        }
      ],
      "stateMutability": "view",
      "type": "function"
    },
    {
      "inputs": [],
      "name": "name",
      "outputs": [
        {
          "internalType": "string",
          "name": "",
          "type": "string"
        }
      ],
      "stateMutability": "view",
      "type": "function"
    },
    {
      "inputs": [],
      "name": "owner",
      "outputs": [
        {
          "internalType": "address",
          "name": "",
          "type": "address"
        }
      ],
      "stateMutability": "view",
      "type": "function"
    },
    {
      "inputs": [
        {
          "internalType": "address",
          "name": "to",
          "type": "address"
        }
      ],
      "name": "ownerMint",
      "outputs": [],
      "stateMutability": "nonpayable",
      "type": "function"
    },
    {
      "inputs": [
        {
          "internalType": "uint256",
          "name": "tokenId",
          "type": "uint256"
        }
      ],
      "name": "ownerOf",
      "outputs": [
        {
          "internalType": "address",
          "name": "",
          "type": "address"
        }
      ],
      "stateMutability": "view",
      "type": "function"
    },
    {
      "inputs": [],
      "name": "pause",
      "outputs": [],
      "stateMutability": "nonpayable",
      "type": "function"
    },
    {
      "inputs": [],
      "name": "paused",
      "outputs": [
        {
          "internalType": "bool",
          "name": "",
          "type": "bool"
        }
      ],
      "stateMutability": "view",
      "type": "function"
    },
    {
      "inputs": [],
      "name": "renounceOwnership",
      "outputs": [],
      "stateMutability": "nonpayable",
      "type": "function"
    },
    {
      "inputs": [
        {
          "internalType": "address",
          "name": "from",
          "type": "address"
        },
        {
          "internalType": "address",
          "name": "to",
          "type": "address"
        },
        {
          "internalType": "uint256",
          "name": "tokenId",
          "type": "uint256"
        }
      ],
      "name": "safeTransferFrom",
      "outputs": [],
      "stateMutability": "nonpayable",
      "type": "function"
    },
    {
      "inputs": [
        {
          "internalType": "address",
          "name": "from",
          "type": "address"
        },
        {
          "internalType": "address",
          "name": "to",
          "type": "address"
        },
        {
          "internalType": "uint256",
          "name": "tokenId",
          "type": "uint256"
        },
        {
          "internalType": "bytes",
          "name": "_data",
          "type": "bytes"
        }
      ],
      "name": "safeTransferFrom",
      "outputs": [],
      "stateMutability": "nonpayable",
      "type": "function"
    },
    {
      "inputs": [
        {
          "internalType": "address",
          "name": "operator",
          "type": "address"
        },
        {
          "internalType": "bool",
          "name": "approved",
          "type": "bool"
        }
      ],
      "name": "setApprovalForAll",
      "outputs": [],
      "stateMutability": "nonpayable",
      "type": "function"
    },
    {
      "inputs": [
        {
          "internalType": "string",
          "name": "uri",
          "type": "string"
        }
      ],
      "name": "setBaseURI",
      "outputs": [],
      "stateMutability": "nonpayable",
      "type": "function"
    },
    {
      "inputs": [
        {
          "internalType": "uint256",
          "name": "newMax",
          "type": "uint256"
        }
      ],
      "name": "setMaxPerWallet",
      "outputs": [],
      "stateMutability": "nonpayable",
      "type": "function"
    },
    {
      "inputs": [
        {
          "internalType": "bytes32",
          "name": "newMerkleRoot",
          "type": "bytes32"
        }
      ],
      "name": "setMerkleRoot",
      "outputs": [],
      "stateMutability": "nonpayable",
      "type": "function"
    },
    {
      "inputs": [
        {
          "internalType": "uint256",
          "name": "newPrice",
          "type": "uint256"
        }
      ],
      "name": "setMintPrice",
      "outputs": [],
      "stateMutability": "nonpayable",
      "type": "function"
    },
    {
      "inputs": [
        {
          "internalType": "bytes4",
          "name": "interfaceId",
          "type": "bytes4"
        }
      ],
      "name": "supportsInterface",
      "outputs": [
        {
          "internalType": "bool",
          "name": "",
          "type": "bool"
        }
      ],
      "stateMutability": "view",
      "type": "function"
    },
    {
      "inputs": [],
      "name": "symbol",
      "outputs": [
        {
          "internalType": "string",
          "name": "",
          "type": "string"
        }
      ],
      "stateMutability": "view",
      "type": "function"
    },
    {
      "inputs": [
        {
          "internalType": "uint256",
          "name": "index",
          "type": "uint256"
        }
      ],
      "name": "tokenByIndex",
      "outputs": [
        {
          "internalType": "uint256",
          "name": "",
          "type": "uint256"
        }
      ],
      "stateMutability": "view",
      "type": "function"
    },
    {
      "inputs": [
        {
          "internalType": "address",
          "name": "owner",
          "type": "address"
        },
        {
          "internalType": "uint256",
          "name": "index",
          "type": "uint256"
        }
      ],
      "name": "tokenOfOwnerByIndex",
      "outputs": [
        {
          "internalType": "uint256",
          "name": "",
          "type": "uint256"
        }
      ],
      "stateMutability": "view",
      "type": "function"
    },
    {
      "inputs": [
        {
          "internalType": "uint256",
          "name": "tokenId",
          "type": "uint256"
        }
      ],
      "name": "tokenURI",
      "outputs": [
        {
          "internalType": "string",
          "name": "",
          "type": "string"
        }
      ],
      "stateMutability": "view",
      "type": "function"
    },
    {
      "inputs": [],
      "name": "totalMinted",
      "outputs": [
        {
          "internalType": "uint256",
          "name": "",
          "type": "uint256"
        }
      ],
      "stateMutability": "view",
      "type": "function"
    },
    {
      "inputs": [],
      "name": "totalSupply",
      "outputs": [
        {
          "internalType": "uint256",
          "name": "",
          "type": "uint256"
        }
      ],
      "stateMutability": "view",
      "type": "function"
    },
    {
      "inputs": [
        {
          "internalType": "address",
          "name": "from",
          "type": "address"
        },
        {
          "internalType": "address",
          "name": "to",
          "type": "address"
        },
        {
          "internalType": "uint256",
          "name": "tokenId",
          "type": "uint256"
        }
      ],
      "name": "transferFrom",
      "outputs": [],
      "stateMutability": "nonpayable",
      "type": "function"
    },
    {
      "inputs": [
        {
          "internalType": "address",
          "name": "newOwner",
          "type": "address"
        }
      ],
      "name": "transferOwnership",
      "outputs": [],
      "stateMutability": "nonpayable",
      "type": "function"
    },
    {
      "inputs": [],
      "name": "unpause",
      "outputs": [],
      "stateMutability": "nonpayable",
      "type": "function"
    },
    {
      "inputs": [],
      "name": "withdraw",
      "outputs": [],
      "stateMutability": "nonpayable",
      "type": "function"
    }
  ],
  "bytecode": "0x608060405234801561001057600080fd5b506153c5806100206000396000f3fe60806040526004361061021a5760003560e01c80635c975abb11610123578063a22cb465116100ab578063cbd0fffe1161006f578063cbd0fffe1461079e578063e268e4d3146107db578063e985e9c514610804578063f2fde38b14610841578063f4a0a5281461086a5761021a565b8063a22cb465146106c8578063a2309ff8146106f1578063b77a147b1461071c578063b88d4fde14610738578063c87b56dd146107615761021a565b8063715018a6116100f2578063715018a61461061b5780637cb64759146106325780638456cb591461065b5780638da5cb5b1461067257806395d89b411461069d5761021a565b80635c975abb1461054b5780636352211e146105765780636817c76c146105b357806370a08231146105de5761021a565b806331ae8851116101a65780633f4ba83a116101755780633f4ba83a1461047a57806342842e0e14610491578063453c2310146104ba5780634f6ccce7146104e557806355f804b3146105225761021a565b806331ae8851146103d257806332cb6b0c146103fb5780633a602b4d146104265780633ccfd60b146104635761021a565b806318160ddd116101ed57806318160ddd146102ed5780631e3bcc8e1461031857806323b872dd146103415780632eb4a7ab1461036a5780632f745c59146103955761021a565b806301ffc9a71461021f57806306fdde031461025c578063081812fc14610287578063095ea7b3146102c4575b600080fd5b34801561022b57600080fd5b506102466004803603810190610241919061369b565b610893565b60405161025391906136e3565b60405180910390f35b34801561026857600080fd5b5061027161090d565b60405161027e9190613797565b60405180910390f35b34801561029357600080fd5b506102ae60048036038101906102a991906137ef565b61099f565b6040516102bb919061385d565b60405180910390f35b3480156102d057600080fd5b506102eb60048036038101906102e691906138a4565b610a24565b005b3480156102f957600080fd5b50610302610b3b565b60405161030f91906138f3565b60405180910390f35b34801561032457600080fd5b5061033f600480360381019061033a919061390e565b610b48565b005b34801561034d57600080fd5b506103686004803603810190610363919061393b565b610cce565b005b34801561037657600080fd5b5061037f610d2e565b60405161038c91906139a7565b60405180910390f35b3480156103a157600080fd5b506103bc60048036038101906103b791906138a4565b610d35565b6040516103c991906138f3565b60405180910390f35b3480156103de57600080fd5b506103f960048036038101906103f49190613b23565b610dda565b005b34801561040757600080fd5b50610410610f20565b60405161041d91906138f3565b60405180910390f35b34801561043257600080fd5b5061044d6004803603810190610448919061390e565b610f26565b60405161045a91906138f3565b60405180910390f35b34801561046f57600080fd5b50610478610f3f565b005b34801561048657600080fd5b5061048f611060565b005b34801561049d57600080fd5b506104b860048036038101906104b3919061393b565b6110e6565b005b3480156104c657600080fd5b506104cf611106565b6040516104dc91906138f3565b60405180910390f35b3480156104f157600080fd5b5061050c600480360381019061050791906137ef565b61110d565b60405161051991906138f3565b60405180910390f35b34801561052e57600080fd5b5061054960048036038101906105449190613c04565b61117e565b005b34801561055757600080fd5b50610560611245565b60405161056d91906136e3565b60405180910390f35b34801561058257600080fd5b5061059d600480360381019061059891906137ef565b61125d565b6040516105aa919061385d565b60405180910390f35b3480156105bf57600080fd5b506105c861130e565b6040516105d591906138f3565b60405180910390f35b3480156105ea57600080fd5b506106056004803603810190610600919061390e565b611315565b60405161061291906138f3565b60405180910390f35b34801561062757600080fd5b506106306113cc565b005b34801561063e57600080fd5b5061065960048036038101906106549190613c4d565b611454565b005b34801561066757600080fd5b506106706114db565b005b34801561067e57600080fd5b50610687611561565b604051610694919061385d565b60405180910390f35b3480156106a957600080fd5b506106b261158b565b6040516106bf9190613797565b60405180910390f35b3480156106d457600080fd5b506106ef60048036038101906106ea9190613ca6565b61161d565b005b3480156106fd57600080fd5b50610706611633565b60405161071391906138f3565b60405180910390f35b61073660048036038101906107319190613d46565b61163a565b005b34801561074457600080fd5b5061075f600480360381019061075a9190613e34565b61196a565b005b34801561076d57600080fd5b50610788600480360381019061078391906137ef565b6119cc565b6040516107959190613797565b60405180910390f35b3480156107aa57600080fd5b506107c560048036038101906107c09190613eb7565b611a73565b6040516107d291906136e3565b60405180910390f35b3480156107e757600080fd5b5061080260048036038101906107fd91906137ef565b611b72565b005b34801561081057600080fd5b5061082b60048036038101906108269190613f17565b611c30565b60405161083891906136e3565b60405180910390f35b34801561084d57600080fd5b506108686004803603810190610863919061390e565b611cc4565b005b34801561087657600080fd5b50610891600480360381019061088c91906137ef565b611dbb565b005b60007f780e9d63000000000000000000000000000000000000000000000000000000007bffffffffffffffffffffffffffffffffffffffffffffffffffffffff1916827bffffffffffffffffffffffffffffffffffffffffffffffffffffffff19161480610906575061090582611e79565b5b9050919050565b60606065805461091c90613f86565b80601f016020809104026020016040519081016040528092919081815260200182805461094890613f86565b80156109955780601f1061096a57610100808354040283529160200191610995565b820191906000526020600020905b81548152906001019060200180831161097857829003601f168201915b5050505050905090565b60006109aa82611f5b565b6109e9576040517f08c379a00000000000000000000000000000000000000000000000000000000081526004016109e090614029565b60405180910390fd5b6069600083815260200190815260200160002060009054906101000a900473ffffffffffffffffffffffffffffffffffffffff169050919050565b6000610a2f8261125d565b90508073ffffffffffffffffffffffffffffffffffffffff168373ffffffffffffffffffffffffffffffffffffffff1603610a9f576040517f08c379a0000000000000000000000000000000000000000000000000000000008152600401610a96906140bb565b60405180910390fd5b8073ffffffffffffffffffffffffffffffffffffffff16610abe611fc7565b73ffffffffffffffffffffffffffffffffffffffff161480610aed5750610aec81610ae7611fc7565b611c30565b5b610b2c576040517f08c379a0000000000000000000000000000000000000000000000000000000008152600401610b239061414d565b60405180910390fd5b610b368383611fcf565b505050565b6000609980549050905090565b610b50611fc7565b73ffffffffffffffffffffffffffffffffffffffff16610b6e611561565b73ffffffffffffffffffffffffffffffffffffffff1614610bc4576040517f08c379a0000000000000000000000000000000000000000000000000000000008152600401610bbb906141b9565b60405180910390fd5b600260fb5403610c09576040517f08c379a0000000000000000000000000000000000000000000000000000000008152600401610c0090614225565b60405180910390fd5b600260fb8190555061115c6101625410610c58576040517f08c379a0000000000000000000000000000000000000000000000000000000008152600401610c4f90614291565b60405180910390fd5b6000600161016254610c6a91906142e0565b9050610c768282612088565b8061016281905550808273ffffffffffffffffffffffffffffffffffffffff167f0f6798a560793a54c3bcfe86a93cde1e73087d944c0ea20544137d412139688560405160405180910390a350600160fb8190555050565b610cdf610cd9611fc7565b826120a6565b610d1e576040517f08c379a0000000000000000000000000000000000000000000000000000000008152600401610d15906143a8565b60405180910390fd5b610d29838383612184565b505050565b61015f5481565b6000610d4083611315565b8210610d81576040517f08c379a0000000000000000000000000000000000000000000000000000000008152600401610d789061443a565b60405180910390fd5b609760008473ffffffffffffffffffffffffffffffffffffffff1673ffffffffffffffffffffffffffffffffffffffff168152602001908152602001600020600083815260200190815260200160002054905092915050565b600060019054906101000a900460ff16610e025760008054906101000a900460ff1615610e0b565b610e0a6123ea565b5b610e4a576040517f08c379a0000000000000000000000000000000000000000000000000000000008152600401610e41906144cc565b60405180910390fd5b60008060019054906101000a900460ff161590508015610e9a576001600060016101000a81548160ff02191690831515021790555060016000806101000a81548160ff0219169083151502179055505b610ea486866123fb565b610eac612458565b610eb46124a9565b610ebc612502565b610ec461255b565b8661015f8190555083610160819055508261016181905550816101639081610eec9190614698565b506000610162819055508015610f175760008060016101000a81548160ff0219169083151502179055505b50505050505050565b61115c81565b6101646020528060005260406000206000915090505481565b610f47611fc7565b73ffffffffffffffffffffffffffffffffffffffff16610f65611561565b73ffffffffffffffffffffffffffffffffffffffff1614610fbb576040517f08c379a0000000000000000000000000000000000000000000000000000000008152600401610fb2906141b9565b60405180910390fd5b600260fb5403611000576040517f08c379a0000000000000000000000000000000000000000000000000000000008152600401610ff790614225565b60405180910390fd5b600260fb81905550611010611561565b73ffffffffffffffffffffffffffffffffffffffff166108fc479081150290604051600060405180830381858888f19350505050158015611055573d6000803e3d6000fd5b50600160fb81905550565b611068611fc7565b73ffffffffffffffffffffffffffffffffffffffff16611086611561565b73ffffffffffffffffffffffffffffffffffffffff16146110dc576040517f08c379a00000000000000000000000000000000000000000000000000000000081526004016110d3906141b9565b60405180910390fd5b6110e46125b4565b565b6111018383836040518060200160405280600081525061196a565b505050565b6101615481565b6000611117610b3b565b8210611158576040517f08c379a000000000000000000000000000000000000000000000000000000000815260040161114f906147dc565b60405180910390fd5b6099828154811061116c5761116b6147fc565b5b90600052602060002001549050919050565b611186611fc7565b73ffffffffffffffffffffffffffffffffffffffff166111a4611561565b73ffffffffffffffffffffffffffffffffffffffff16146111fa576040517f08c379a00000000000000000000000000000000000000000000000000000000081526004016111f1906141b9565b60405180910390fd5b80610163908161120a9190614698565b507f6741b2fc379fad678116fe3d4d4b9a1a184ab53ba36b86ad0fa66340b1ab41ad8160405161123a9190613797565b60405180910390a150565b600061012d60009054906101000a900460ff16905090565b6000806067600084815260200190815260200160002060009054906101000a900473ffffffffffffffffffffffffffffffffffffffff169050600073ffffffffffffffffffffffffffffffffffffffff168173ffffffffffffffffffffffffffffffffffffffff1603611305576040517f08c379a00000000000000000000000000000000000000000000000000000000081526004016112fc9061489d565b60405180910390fd5b80915050919050565b6101605481565b60008073ffffffffffffffffffffffffffffffffffffffff168273ffffffffffffffffffffffffffffffffffffffff1603611385576040517f08c379a000000000000000000000000000000000000000000000000000000000815260040161137c9061492f565b60405180910390fd5b606860008373ffffffffffffffffffffffffffffffffffffffff1673ffffffffffffffffffffffffffffffffffffffff168152602001908152602001600020549050919050565b6113d4611fc7565b73ffffffffffffffffffffffffffffffffffffffff166113f2611561565b73ffffffffffffffffffffffffffffffffffffffff1614611448576040517f08c379a000000000000000000000000000000000000000000000000000000000815260040161143f906141b9565b60405180910390fd5b6114526000612657565b565b61145c611fc7565b73ffffffffffffffffffffffffffffffffffffffff1661147a611561565b73ffffffffffffffffffffffffffffffffffffffff16146114d0576040517f08c379a00000000000000000000000000000000000000000000000000000000081526004016114c7906141b9565b60405180910390fd5b8061015f8190555050565b6114e3611fc7565b73ffffffffffffffffffffffffffffffffffffffff16611501611561565b73ffffffffffffffffffffffffffffffffffffffff1614611557576040517f08c379a000000000000000000000000000000000000000000000000000000000815260040161154e906141b9565b60405180910390fd5b61155f61271d565b565b600060c960009054906101000a900473ffffffffffffffffffffffffffffffffffffffff16905090565b60606066805461159a90613f86565b80601f01602080910402602001604051908101604052809291908181526020018280546115c690613f86565b80156116135780601f106115e857610100808354040283529160200191611613565b820191906000526020600020905b8154815290600101906020018083116115f657829003601f168201915b5050505050905090565b61162f611628611fc7565b83836127c1565b5050565b6101625481565b600260fb540361167f576040517f08c379a000000000000000000000000000000000000000000000000000000000815260040161167690614225565b60405180910390fd5b600260fb8190555061168f611245565b156116cf576040517f08c379a00000000000000000000000000000000000000000000000000000000081526004016116c69061499b565b60405180910390fd5b61016054341015611715576040517f08c379a000000000000000000000000000000000000000000000000000000000815260040161170c90614a07565b60405180910390fd5b61115c610162541061175c576040517f08c379a000000000000000000000000000000000000000000000000000000000815260040161175390614291565b60405180910390fd5b6101615461016460003373ffffffffffffffffffffffffffffffffffffffff1673ffffffffffffffffffffffffffffffffffffffff16815260200190815260200160002054106117e1576040517f08c379a00000000000000000000000000000000000000000000000000000000081526004016117d890614a73565b60405180910390fd5b6000336040516020016117f49190614adb565b60405160208183030381529060405280519060200120905061185b838380806020026020016040519081016040528093929190818152602001838360200280828437600081840152601f19601f8201169050808301925050505050505061015f548361292d565b61189a576040517f08c379a000000000000000000000000000000000000000000000000000000000815260040161189190614b42565b60405180910390fd5b60006001610162546118ac91906142e0565b90506118b83382612088565b8061016281905550600161016460003373ffffffffffffffffffffffffffffffffffffffff1673ffffffffffffffffffffffffffffffffffffffff168152602001908152602001600020600082825461191191906142e0565b92505081905550803373ffffffffffffffffffffffffffffffffffffffff167f0f6798a560793a54c3bcfe86a93cde1e73087d944c0ea20544137d412139688560405160405180910390a35050600160fb819055505050565b61197b611975611fc7565b836120a6565b6119ba576040517f08c379a00000000000000000000000000000000000000000000000000000000081526004016119b1906143a8565b60405180910390fd5b6119c684848484612944565b50505050565b60606119d782611f5b565b611a16576040517f08c379a0000000000000000000000000000000000000000000000000000000008152600401611a0d90614bd4565b60405180910390fd5b6000611a206129a0565b90506000815111611a405760405180602001604052806000815250611a6b565b80611a4a84612a33565b604051602001611a5b929190614c30565b6040516020818303038152906040525b915050919050565b600061115c6101625410611a8a5760009050611b6b565b6101615461016460008673ffffffffffffffffffffffffffffffffffffffff1673ffffffffffffffffffffffffffffffffffffffff1681526020019081526020016000205410611add5760009050611b6b565b600084604051602001611af09190614adb565b604051602081830303815290604052805190602001209050611b57848480806020026020016040519081016040528093929190818152602001838360200280828437600081840152601f19601f8201169050808301925050505050505061015f548361292d565b611b65576000915050611b6b565b60019150505b9392505050565b611b7a611fc7565b73ffffffffffffffffffffffffffffffffffffffff16611b98611561565b73ffffffffffffffffffffffffffffffffffffffff1614611bee576040517f08c379a0000000000000000000000000000000000000000000000000000000008152600401611be5906141b9565b60405180910390fd5b80610161819055507f97e4f91a4b7e108aff6d29a03d7b9f94705ad90ed51b377784a1943ea32257e781604051611c2591906138f3565b60405180910390a150565b6000606a60008473ffffffffffffffffffffffffffffffffffffffff1673ffffffffffffffffffffffffffffffffffffffff16815260200190815260200160002060008373ffffffffffffffffffffffffffffffffffffffff1673ffffffffffffffffffffffffffffffffffffffff16815260200190815260200160002060009054906101000a900460ff16905092915050565b611ccc611fc7565b73ffffffffffffffffffffffffffffffffffffffff16611cea611561565b73ffffffffffffffffffffffffffffffffffffffff1614611d40576040517f08c379a0000000000000000000000000000000000000000000000000000000008152600401611d37906141b9565b60405180910390fd5b600073ffffffffffffffffffffffffffffffffffffffff168173ffffffffffffffffffffffffffffffffffffffff1603611daf576040517f08c379a0000000000000000000000000000000000000000000000000000000008152600401611da690614cc6565b60405180910390fd5b611db881612657565b50565b611dc3611fc7565b73ffffffffffffffffffffffffffffffffffffffff16611de1611561565b73ffffffffffffffffffffffffffffffffffffffff1614611e37576040517f08c379a0000000000000000000000000000000000000000000000000000000008152600401611e2e906141b9565b60405180910390fd5b80610160819055507f525b762709cc2a983aec5ccdfd807a061f993c91090b5bcd7da92ca254976aaa81604051611e6e91906138f3565b60405180910390a150565b60007f80ac58cd000000000000000000000000000000000000000000000000000000007bffffffffffffffffffffffffffffffffffffffffffffffffffffffff1916827bffffffffffffffffffffffffffffffffffffffffffffffffffffffff19161480611f4457507f5b5e139f000000000000000000000000000000000000000000000000000000007bffffffffffffffffffffffffffffffffffffffffffffffffffffffff1916827bffffffffffffffffffffffffffffffffffffffffffffffffffffffff1916145b80611f545750611f5382612b93565b5b9050919050565b60008073ffffffffffffffffffffffffffffffffffffffff166067600084815260200190815260200160002060009054906101000a900473ffffffffffffffffffffffffffffffffffffffff1673ffffffffffffffffffffffffffffffffffffffff1614159050919050565b600033905090565b816069600083815260200190815260200160002060006101000a81548173ffffffffffffffffffffffffffffffffffffffff021916908373ffffffffffffffffffffffffffffffffffffffff160217905550808273ffffffffffffffffffffffffffffffffffffffff166120428361125d565b73ffffffffffffffffffffffffffffffffffffffff167f8c5be1e5ebec7d5bd14f71427d1e84f3dd0314c0f7b2291e5b200ac8c7c3b92560405160405180910390a45050565b6120a2828260405180602001604052806000815250612bfd565b5050565b60006120b182611f5b565b6120f0576040517f08c379a00000000000000000000000000000000000000000000000000000000081526004016120e790614d58565b60405180910390fd5b60006120fb8361125d565b90508073ffffffffffffffffffffffffffffffffffffffff168473ffffffffffffffffffffffffffffffffffffffff16148061216a57508373ffffffffffffffffffffffffffffffffffffffff166121528461099f565b73ffffffffffffffffffffffffffffffffffffffff16145b8061217b575061217a8185611c30565b5b91505092915050565b8273ffffffffffffffffffffffffffffffffffffffff166121a48261125d565b73ffffffffffffffffffffffffffffffffffffffff16146121fa576040517f08c379a00000000000000000000000000000000000000000000000000000000081526004016121f190614dea565b60405180910390fd5b600073ffffffffffffffffffffffffffffffffffffffff168273ffffffffffffffffffffffffffffffffffffffff1603612269576040517f08c379a000000000000000000000000000000000000000000000000000000000815260040161226090614e7c565b60405180910390fd5b612274838383612c58565b61227f600082611fcf565b6001606860008573ffffffffffffffffffffffffffffffffffffffff1673ffffffffffffffffffffffffffffffffffffffff16815260200190815260200160002060008282546122cf9190614e9c565b925050819055506001606860008473ffffffffffffffffffffffffffffffffffffffff1673ffffffffffffffffffffffffffffffffffffffff168152602001908152602001600020600082825461232691906142e0565b92505081905550816067600083815260200190815260200160002060006101000a81548173ffffffffffffffffffffffffffffffffffffffff021916908373ffffffffffffffffffffffffffffffffffffffff160217905550808273ffffffffffffffffffffffffffffffffffffffff168473ffffffffffffffffffffffffffffffffffffffff167fddf252ad1be2c89b69c2b068fc378daa952ba7f163c4a11628f55a4df523b3ef60405160405180910390a46123e5838383612d6a565b505050565b60006123f530612d6f565b15905090565b600060019054906101000a900460ff1661244a576040517f08c379a000000000000000000000000000000000000000000000000000000000815260040161244190614f42565b60405180910390fd5b6124548282612d92565b5050565b600060019054906101000a900460ff166124a7576040517f08c379a000000000000000000000000000000000000000000000000000000000815260040161249e90614f42565b60405180910390fd5b565b600060019054906101000a900460ff166124f8576040517f08c379a00000000000000000000000000000000000000000000000000000000081526004016124ef90614f42565b60405180910390fd5b612500612e05565b565b600060019054906101000a900460ff16612551576040517f08c379a000000000000000000000000000000000000000000000000000000000815260040161254890614f42565b60405180910390fd5b612559612e66565b565b600060019054906101000a900460ff166125aa576040517f08c379a00000000000000000000000000000000000000000000000000000000081526004016125a190614f42565b60405180910390fd5b6125b2612ebf565b565b6125bc611245565b6125fb576040517f08c379a00000000000000000000000000000000000000000000000000000000081526004016125f290614fae565b60405180910390fd5b600061012d60006101000a81548160ff0219169083151502179055507f5db9ee0a495bf2e6ff9c91a7834c1ba4fdd244a5e8aa4e537bd38aeae4b073aa612640611fc7565b60405161264d919061385d565b60405180910390a1565b600060c960009054906101000a900473ffffffffffffffffffffffffffffffffffffffff1690508160c960006101000a81548173ffffffffffffffffffffffffffffffffffffffff021916908373ffffffffffffffffffffffffffffffffffffffff1602179055508173ffffffffffffffffffffffffffffffffffffffff168173ffffffffffffffffffffffffffffffffffffffff167f8be0079c531659141344cd1fd0a4f28419497f9722a3daafe3b4186f6b6457e060405160405180910390a35050565b612725611245565b15612765576040517f08c379a000000000000000000000000000000000000000000000000000000000815260040161275c9061499b565b60405180910390fd5b600161012d60006101000a81548160ff0219169083151502179055507f62e78cea01bee320cd4e420270b5ea74000d11b0c9f74754ebdbfc544b05a2586127aa611fc7565b6040516127b7919061385d565b60405180910390a1565b8173ffffffffffffffffffffffffffffffffffffffff168373ffffffffffffffffffffffffffffffffffffffff160361282f576040517f08c379a00000000000000000000000000000000000000000000000000000000081526004016128269061501a565b60405180910390fd5b80606a60008573ffffffffffffffffffffffffffffffffffffffff1673ffffffffffffffffffffffffffffffffffffffff16815260200190815260200160002060008473ffffffffffffffffffffffffffffffffffffffff1673ffffffffffffffffffffffffffffffffffffffff16815260200190815260200160002060006101000a81548160ff0219169083151502179055508173ffffffffffffffffffffffffffffffffffffffff168373ffffffffffffffffffffffffffffffffffffffff167f17307eab39ab6107e8899845ad3d59bd9653f200f220920489ca2b5937696c318360405161292091906136e3565b60405180910390a3505050565b60008261293a8584612f2c565b1490509392505050565b61294f848484612184565b61295b84848484612f82565b61299a576040517f08c379a0000000000000000000000000000000000000000000000000000000008152600401612991906150ac565b60405180910390fd5b50505050565b606061016380546129b090613f86565b80601f01602080910402602001604051908101604052809291908181526020018280546129dc90613f86565b8015612a295780601f106129fe57610100808354040283529160200191612a29565b820191906000526020600020905b815481529060010190602001808311612a0c57829003601f168201915b5050505050905090565b606060008203612a7a576040518060400160405280600181526020017f30000000000000000000000000000000000000000000000000000000000000008152509050612b8e565b600082905060005b60008214612aac578080612a95906150cc565b915050600a82612aa59190615143565b9150612a82565b60008167ffffffffffffffff811115612ac857612ac76139f8565b5b6040519080825280601f01601f191660200182016040528015612afa5781602001600182028036833780820191505090505b5090505b60008514612b8757600182612b139190614e9c565b9150600a85612b229190615174565b6030612b2e91906142e0565b60f81b818381518110612b4457612b436147fc565b5b60200101907effffffffffffffffffffffffffffffffffffffffffffffffffffffffffffff1916908160001a905350600a85612b809190615143565b9450612afe565b8093505050505b919050565b60007f01ffc9a7000000000000000000000000000000000000000000000000000000007bffffffffffffffffffffffffffffffffffffffffffffffffffffffff1916827bffffffffffffffffffffffffffffffffffffffffffffffffffffffff1916149050919050565b612c078383613109565b612c146000848484612f82565b612c53576040517f08c379a0000000000000000000000000000000000000000000000000000000008152600401612c4a906150ac565b60405180910390fd5b505050565b612c638383836132e2565b600073ffffffffffffffffffffffffffffffffffffffff168373ffffffffffffffffffffffffffffffffffffffff1603612ca557612ca0816132e7565b612ce4565b8173ffffffffffffffffffffffffffffffffffffffff168373ffffffffffffffffffffffffffffffffffffffff1614612ce357612ce28382613330565b5b5b600073ffffffffffffffffffffffffffffffffffffffff168273ffffffffffffffffffffffffffffffffffffffff1603612d2657612d218161349d565b612d65565b8273ffffffffffffffffffffffffffffffffffffffff168273ffffffffffffffffffffffffffffffffffffffff1614612d6457612d63828261356e565b5b5b505050565b505050565b6000808273ffffffffffffffffffffffffffffffffffffffff163b119050919050565b600060019054906101000a900460ff16612de1576040517f08c379a0000000000000000000000000000000000000000000000000000000008152600401612dd890614f42565b60405180910390fd5b8160659081612df09190614698565b508060669081612e009190614698565b505050565b600060019054906101000a900460ff16612e54576040517f08c379a0000000000000000000000000000000000000000000000000000000008152600401612e4b90614f42565b60405180910390fd5b612e64612e5f611fc7565b612657565b565b600060019054906101000a900460ff16612eb5576040517f08c379a0000000000000000000000000000000000000000000000000000000008152600401612eac90614f42565b60405180910390fd5b600160fb81905550565b600060019054906101000a900460ff16612f0e576040517f08c379a0000000000000000000000000000000000000000000000000000000008152600401612f0590614f42565b60405180910390fd5b600061012d60006101000a81548160ff021916908315150217905550565b60008082905060005b8451811015612f7757612f6282868381518110612f5557612f546147fc565b5b60200260200101516135ed565b91508080612f6f906150cc565b915050612f35565b508091505092915050565b6000612fa38473ffffffffffffffffffffffffffffffffffffffff16612d6f565b156130fc578373ffffffffffffffffffffffffffffffffffffffff1663150b7a02612fcc611fc7565b8786866040518563ffffffff1660e01b8152600401612fee94939291906151fa565b6020604051808303816000875af192505050801561302a57506040513d601f19601f82011682018060405250810190613027919061525b565b60015b6130ac573d806000811461305a576040519150601f19603f3d011682016040523d82523d6000602084013e61305f565b606091505b5060008151036130a4576040517f08c379a000000000000000000000000000000000000000000000000000000000815260040161309b906150ac565b60405180910390fd5b805181602001fd5b63150b7a0260e01b7bffffffffffffffffffffffffffffffffffffffffffffffffffffffff1916817bffffffffffffffffffffffffffffffffffffffffffffffffffffffff191614915050613101565b600190505b949350505050565b600073ffffffffffffffffffffffffffffffffffffffff168273ffffffffffffffffffffffffffffffffffffffff1603613178576040517f08c379a000000000000000000000000000000000000000000000000000000000815260040161316f906152d4565b60405180910390fd5b61318181611f5b565b156131c1576040517f08c379a00000000000000000000000000000000000000000000000000000000081526004016131b890615340565b60405180910390fd5b6131cd60008383612c58565b6001606860008473ffffffffffffffffffffffffffffffffffffffff1673ffffffffffffffffffffffffffffffffffffffff168152602001908152602001600020600082825461321d91906142e0565b92505081905550816067600083815260200190815260200160002060006101000a81548173ffffffffffffffffffffffffffffffffffffffff021916908373ffffffffffffffffffffffffffffffffffffffff160217905550808273ffffffffffffffffffffffffffffffffffffffff16600073ffffffffffffffffffffffffffffffffffffffff167fddf252ad1be2c89b69c2b068fc378daa952ba7f163c4a11628f55a4df523b3ef60405160405180910390a46132de60008383612d6a565b5050565b505050565b609980549050609a600083815260200190815260200160002081905550609981908060018154018082558091505060019003906000526020600020016000909190919091505550565b6000600161333d84611315565b6133479190614e9c565b905060006098600084815260200190815260200160002054905081811461342c576000609760008673ffffffffffffffffffffffffffffffffffffffff1673ffffffffffffffffffffffffffffffffffffffff168152602001908152602001600020600084815260200190815260200160002054905080609760008773ffffffffffffffffffffffffffffffffffffffff1673ffffffffffffffffffffffffffffffffffffffff168152602001908152602001600020600084815260200190815260200160002081905550816098600083815260200190815260200160002081905550505b6098600084815260200190815260200160002060009055609760008573ffffffffffffffffffffffffffffffffffffffff1673ffffffffffffffffffffffffffffffffffffffff16815260200190815260200160002060008381526020019081526020016000206000905550505050565b600060016099805490506134b19190614e9c565b90506000609a60008481526020019081526020016000205490506000609983815481106134e1576134e06147fc565b5b906000526020600020015490508060998381548110613503576135026147fc565b5b906000526020600020018190555081609a600083815260200190815260200160002081905550609a600085815260200190815260200160002060009055609980548061355257613551615360565b5b6001900381819060005260206000200160009055905550505050565b600061357983611315565b905081609760008573ffffffffffffffffffffffffffffffffffffffff1673ffffffffffffffffffffffffffffffffffffffff168152602001908152602001600020600083815260200190815260200160002081905550806098600084815260200190815260200160002081905550505050565b6000818310613605576136008284613618565b613610565b61360f8383613618565b5b905092915050565b600082600052816020526040600020905092915050565b6000604051905090565b600080fd5b600080fd5b60007fffffffff0000000000000000000000000000000000000000000000000000000082169050919050565b61367881613643565b811461368357600080fd5b50565b6000813590506136958161366f565b92915050565b6000602082840312156136b1576136b0613639565b5b60006136bf84828501613686565b91505092915050565b60008115159050919050565b6136dd816136c8565b82525050565b60006020820190506136f860008301846136d4565b92915050565b600081519050919050565b600082825260208201905092915050565b60005b8381101561373857808201518184015260208101905061371d565b83811115613747576000848401525b50505050565b6000601f19601f8301169050919050565b6000613769826136fe565b6137738185613709565b935061378381856020860161371a565b61378c8161374d565b840191505092915050565b600060208201905081810360008301526137b1818461375e565b905092915050565b6000819050919050565b6137cc816137b9565b81146137d757600080fd5b50565b6000813590506137e9816137c3565b92915050565b60006020828403121561380557613804613639565b5b6000613813848285016137da565b91505092915050565b600073ffffffffffffffffffffffffffffffffffffffff82169050919050565b60006138478261381c565b9050919050565b6138578161383c565b82525050565b6000602082019050613872600083018461384e565b92915050565b6138818161383c565b811461388c57600080fd5b50565b60008135905061389e81613878565b92915050565b600080604083850312156138bb576138ba613639565b5b60006138c98582860161388f565b92505060206138da858286016137da565b9150509250929050565b6138ed816137b9565b82525050565b600060208201905061390860008301846138e4565b92915050565b60006020828403121561392457613923613639565b5b60006139328482850161388f565b91505092915050565b60008060006060848603121561395457613953613639565b5b60006139628682870161388f565b93505060206139738682870161388f565b9250506040613984868287016137da565b9150509250925092565b6000819050919050565b6139a18161398e565b82525050565b60006020820190506139bc6000830184613998565b92915050565b6139cb8161398e565b81146139d657600080fd5b50565b6000813590506139e8816139c2565b92915050565b600080fd5b600080fd5b7f4e487b7100000000000000000000000000000000000000000000000000000000600052604160045260246000fd5b613a308261374d565b810181811067ffffffffffffffff82111715613a4f57613a4e6139f8565b5b80604052505050565b6000613a6261362f565b9050613a6e8282613a27565b919050565b600067ffffffffffffffff821115613a8e57613a8d6139f8565b5b613a978261374d565b9050602081019050919050565b82818337600083830152505050565b6000613ac6613ac184613a73565b613a58565b905082815260208101848484011115613ae257613ae16139f3565b5b613aed848285613aa4565b509392505050565b600082601f830112613b0a57613b096139ee565b5b8135613b1a848260208601613ab3565b91505092915050565b60008060008060008060c08789031215613b4057613b3f613639565b5b6000613b4e89828a016139d9565b965050602087013567ffffffffffffffff811115613b6f57613b6e61363e565b5b613b7b89828a01613af5565b955050604087013567ffffffffffffffff811115613b9c57613b9b61363e565b5b613ba889828a01613af5565b9450506060613bb989828a016137da565b9350506080613bca89828a016137da565b92505060a087013567ffffffffffffffff811115613beb57613bea61363e565b5b613bf789828a01613af5565b9150509295509295509295565b600060208284031215613c1a57613c19613639565b5b600082013567ffffffffffffffff811115613c3857613c3761363e565b5b613c4484828501613af5565b91505092915050565b600060208284031215613c6357613c62613639565b5b6000613c71848285016139d9565b91505092915050565b613c83816136c8565b8114613c8e57600080fd5b50565b600081359050613ca081613c7a565b92915050565b60008060408385031215613cbd57613cbc613639565b5b6000613ccb8582860161388f565b9250506020613cdc85828601613c91565b9150509250929050565b600080fd5b600080fd5b60008083601f840112613d0657613d056139ee565b5b8235905067ffffffffffffffff811115613d2357613d22613ce6565b5b602083019150836020820283011115613d3f57613d3e613ceb565b5b9250929050565b60008060208385031215613d5d57613d5c613639565b5b600083013567ffffffffffffffff811115613d7b57613d7a61363e565b5b613d8785828601613cf0565b92509250509250929050565b600067ffffffffffffffff821115613dae57613dad6139f8565b5b613db78261374d565b9050602081019050919050565b6000613dd7613dd284613d93565b613a58565b905082815260208101848484011115613df357613df26139f3565b5b613dfe848285613aa4565b509392505050565b600082601f830112613e1b57613e1a6139ee565b5b8135613e2b848260208601613dc4565b91505092915050565b60008060008060808587031215613e4e57613e4d613639565b5b6000613e5c8782880161388f565b9450506020613e6d8782880161388f565b9350506040613e7e878288016137da565b925050606085013567ffffffffffffffff811115613e9f57613e9e61363e565b5b613eab87828801613e06565b91505092959194509250565b600080600060408486031215613ed057613ecf613639565b5b6000613ede8682870161388f565b935050602084013567ffffffffffffffff811115613eff57613efe61363e565b5b613f0b86828701613cf0565b92509250509250925092565b60008060408385031215613f2e57613f2d613639565b5b6000613f3c8582860161388f565b9250506020613f4d8582860161388f565b9150509250929050565b7f4e487b7100000000000000000000000000000000000000000000000000000000600052602260045260246000fd5b60006002820490506001821680613f9e57607f821691505b602082108103613fb157613fb0613f57565b5b50919050565b7f4552433732313a20617070726f76656420717565727920666f72206e6f6e657860008201527f697374656e7420746f6b656e0000000000000000000000000000000000000000602082015250565b6000614013602c83613709565b915061401e82613fb7565b604082019050919050565b6000602082019050818103600083015261404281614006565b9050919050565b7f4552433732313a20617070726f76616c20746f2063757272656e74206f776e6560008201527f7200000000000000000000000000000000000000000000000000000000000000602082015250565b60006140a5602183613709565b91506140b082614049565b604082019050919050565b600060208201905081810360008301526140d481614098565b9050919050565b7f4552433732313a20617070726f76652063616c6c6572206973206e6f74206f7760008201527f6e6572206e6f7220617070726f76656420666f7220616c6c0000000000000000602082015250565b6000614137603883613709565b9150614142826140db565b604082019050919050565b600060208201905081810360008301526141668161412a565b9050919050565b7f4f776e61626c653a2063616c6c6572206973206e6f7420746865206f776e6572600082015250565b60006141a3602083613709565b91506141ae8261416d565b602082019050919050565b600060208201905081810360008301526141d281614196565b9050919050565b7f5265656e7472616e637947756172643a207265656e7472616e742063616c6c00600082015250565b600061420f601f83613709565b915061421a826141d9565b602082019050919050565b6000602082019050818103600083015261423e81614202565b9050919050565b7f4d617820737570706c7920726561636865640000000000000000000000000000600082015250565b600061427b601283613709565b915061428682614245565b602082019050919050565b600060208201905081810360008301526142aa8161426e565b9050919050565b7f4e487b7100000000000000000000000000000000000000000000000000000000600052601160045260246000fd5b60006142eb826137b9565b91506142f6836137b9565b9250827fffffffffffffffffffffffffffffffffffffffffffffffffffffffffffffffff0382111561432b5761432a6142b1565b5b828201905092915050565b7f4552433732313a207472616e736665722063616c6c6572206973206e6f74206f60008201527f776e6572206e6f7220617070726f766564000000000000000000000000000000602082015250565b6000614392603183613709565b915061439d82614336565b604082019050919050565b600060208201905081810360008301526143c181614385565b9050919050565b7f455243373231456e756d657261626c653a206f776e657220696e646578206f7560008201527f74206f6620626f756e6473000000000000000000000000000000000000000000602082015250565b6000614424602b83613709565b915061442f826143c8565b604082019050919050565b6000602082019050818103600083015261445381614417565b9050919050565b7f496e697469616c697a61626c653a20636f6e747261637420697320616c72656160008201527f647920696e697469616c697a6564000000000000000000000000000000000000602082015250565b60006144b6602e83613709565b91506144c18261445a565b604082019050919050565b600060208201905081810360008301526144e5816144a9565b9050919050565b60008190508160005260206000209050919050565b60006020601f8301049050919050565b600082821b905092915050565b60006008830261454e7fffffffffffffffffffffffffffffffffffffffffffffffffffffffffffffffff82614511565b6145588683614511565b95508019841693508086168417925050509392505050565b6000819050919050565b600061459561459061458b846137b9565b614570565b6137b9565b9050919050565b6000819050919050565b6145af8361457a565b6145c36145bb8261459c565b84845461451e565b825550505050565b600090565b6145d86145cb565b6145e38184846145a6565b505050565b5b81811015614607576145fc6000826145d0565b6001810190506145e9565b5050565b601f82111561464c5761461d816144ec565b61462684614501565b81016020851015614635578190505b61464961464185614501565b8301826145e8565b50505b505050565b600082821c905092915050565b600061466f60001984600802614651565b1980831691505092915050565b6000614688838361465e565b9150826002028217905092915050565b6146a1826136fe565b67ffffffffffffffff8111156146ba576146b96139f8565b5b6146c48254613f86565b6146cf82828561460b565b600060209050601f83116001811461470257600084156146f0578287015190505b6146fa858261467c565b865550614762565b601f198416614710866144ec565b60005b8281101561473857848901518255600182019150602085019450602081019050614713565b868310156147555784890151614751601f89168261465e565b8355505b6001600288020188555050505b505050505050565b7f455243373231456e756d657261626c653a20676c6f62616c20696e646578206f60008201527f7574206f6620626f756e64730000000000000000000000000000000000000000602082015250565b60006147c6602c83613709565b91506147d18261476a565b604082019050919050565b600060208201905081810360008301526147f5816147b9565b9050919050565b7f4e487b7100000000000000000000000000000000000000000000000000000000600052603260045260246000fd5b7f4552433732313a206f776e657220717565727920666f72206e6f6e657869737460008201527f656e7420746f6b656e0000000000000000000000000000000000000000000000602082015250565b6000614887602983613709565b91506148928261482b565b604082019050919050565b600060208201905081810360008301526148b68161487a565b9050919050565b7f4552433732313a2062616c616e636520717565727920666f7220746865207a6560008201527f726f206164647265737300000000000000000000000000000000000000000000602082015250565b6000614919602a83613709565b9150614924826148bd565b604082019050919050565b600060208201905081810360008301526149488161490c565b9050919050565b7f5061757361626c653a2070617573656400000000000000000000000000000000600082015250565b6000614985601083613709565b91506149908261494f565b602082019050919050565b600060208201905081810360008301526149b481614978565b9050919050565b7f496e636f7272656374207061796d656e74000000000000000000000000000000600082015250565b60006149f1601183613709565b91506149fc826149bb565b602082019050919050565b60006020820190508181036000830152614a20816149e4565b9050919050565b7f4d6178207065722077616c6c6574207265616368656400000000000000000000600082015250565b6000614a5d601683613709565b9150614a6882614a27565b602082019050919050565b60006020820190508181036000830152614a8c81614a50565b9050919050565b60008160601b9050919050565b6000614aab82614a93565b9050919050565b6000614abd82614aa0565b9050919050565b614ad5614ad08261383c565b614ab2565b82525050565b6000614ae78284614ac4565b60148201915081905092915050565b7f4e6f742077686974656c69737465640000000000000000000000000000000000600082015250565b6000614b2c600f83613709565b9150614b3782614af6565b602082019050919050565b60006020820190508181036000830152614b5b81614b1f565b9050919050565b7f4552433732314d657461646174613a2055524920717565727920666f72206e6f60008201527f6e6578697374656e7420746f6b656e0000000000000000000000000000000000602082015250565b6000614bbe602f83613709565b9150614bc982614b62565b604082019050919050565b60006020820190508181036000830152614bed81614bb1565b9050919050565b600081905092915050565b6000614c0a826136fe565b614c148185614bf4565b9350614c2481856020860161371a565b80840191505092915050565b6000614c3c8285614bff565b9150614c488284614bff565b91508190509392505050565b7f4f776e61626c653a206e6577206f776e657220697320746865207a65726f206160008201527f6464726573730000000000000000000000000000000000000000000000000000602082015250565b6000614cb0602683613709565b9150614cbb82614c54565b604082019050919050565b60006020820190508181036000830152614cdf81614ca3565b9050919050565b7f4552433732313a206f70657261746f7220717565727920666f72206e6f6e657860008201527f697374656e7420746f6b656e0000000000000000000000000000000000000000602082015250565b6000614d42602c83613709565b9150614d4d82614ce6565b604082019050919050565b60006020820190508181036000830152614d7181614d35565b9050919050565b7f4552433732313a207472616e736665722066726f6d20696e636f72726563742060008201527f6f776e6572000000000000000000000000000000000000000000000000000000602082015250565b6000614dd4602583613709565b9150614ddf82614d78565b604082019050919050565b60006020820190508181036000830152614e0381614dc7565b9050919050565b7f4552433732313a207472616e7366657220746f20746865207a65726f2061646460008201527f7265737300000000000000000000000000000000000000000000000000000000602082015250565b6000614e66602483613709565b9150614e7182614e0a565b604082019050919050565b60006020820190508181036000830152614e9581614e59565b9050919050565b6000614ea7826137b9565b9150614eb2836137b9565b925082821015614ec557614ec46142b1565b5b828203905092915050565b7f496e697469616c697a61626c653a20636f6e7472616374206973206e6f74206960008201527f6e697469616c697a696e67000000000000000000000000000000000000000000602082015250565b6000614f2c602b83613709565b9150614f3782614ed0565b604082019050919050565b60006020820190508181036000830152614f5b81614f1f565b9050919050565b7f5061757361626c653a206e6f7420706175736564000000000000000000000000600082015250565b6000614f98601483613709565b9150614fa382614f62565b602082019050919050565b60006020820190508181036000830152614fc781614f8b565b9050919050565b7f4552433732313a20617070726f766520746f2063616c6c657200000000000000600082015250565b6000615004601983613709565b915061500f82614fce565b602082019050919050565b6000602082019050818103600083015261503381614ff7565b9050919050565b7f4552433732313a207472616e7366657220746f206e6f6e20455243373231526560008201527f63656976657220696d706c656d656e7465720000000000000000000000000000602082015250565b6000615096603283613709565b91506150a18261503a565b604082019050919050565b600060208201905081810360008301526150c581615089565b9050919050565b60006150d7826137b9565b91507fffffffffffffffffffffffffffffffffffffffffffffffffffffffffffffffff8203615109576151086142b1565b5b600182019050919050565b7f4e487b7100000000000000000000000000000000000000000000000000000000600052601260045260246000fd5b600061514e826137b9565b9150615159836137b9565b92508261516957615168615114565b5b828204905092915050565b600061517f826137b9565b915061518a836137b9565b92508261519a57615199615114565b5b828206905092915050565b600081519050919050565b600082825260208201905092915050565b60006151cc826151a5565b6151d681856151b0565b93506151e681856020860161371a565b6151ef8161374d565b840191505092915050565b600060808201905061520f600083018761384e565b61521c602083018661384e565b61522960408301856138e4565b818103606083015261523b81846151c1565b905095945050505050565b6000815190506152558161366f565b92915050565b60006020828403121561527157615270613639565b5b600061527f84828501615246565b91505092915050565b7f4552433732313a206d696e7420746f20746865207a65726f2061646472657373600082015250565b60006152be602083613709565b91506152c982615288565b602082019050919050565b600060208201905081810360008301526152ed816152b1565b9050919050565b7f4552433732313a20746f6b656e20616c7265616479206d696e74656400000000600082015250565b600061532a601c83613709565b9150615335826152f4565b602082019050919050565b600060208201905081810360008301526153598161531d565b9050919050565b7f4e487b7100000000000000000000000000000000000000000000000000000000600052603160045260246000fdfea2646970667358221220c3e3f5333f028f7b287e66edddc25d8def12a6c3202e82cf7e61dc02f94319e864736f6c634300080f0033",
  "linkReferences": {},
  "deployedLinkReferences": {}
}