{
  "_format": "hh-sol-artifact-1",
  "contractName": "ANONS",
  "sourceName": "contracts/ANONS.sol",
  "abi": [
    {
      "anonymous": false,
      "inputs": [
        {
          "indexed": true,
          "internalType": "address",
          "name": "owner",
          "type": "address"
        },
        {
          "indexed": true,
          "internalType": "address",
          "name": "approved",
          "type": "address"
        },
        {
          "indexed": true,
          "internalType": "uint256",
          "name": "tokenId",
          "type": "uint256"
        }
      ],
      "name": "Approval",
      "type": "event"
    },
    {
      "anonymous": false,
      "inputs": [
        {
          "indexed": true,
          "internalType": "address",
          "name": "owner",
          "type": "address"
        },
        {
          "indexed": true,
          "internalType": "address",
          "name": "operator",
          "type": "address"
        },
        {
          "indexed": false,
          "internalType": "bool",
          "name": "approved",
          "type": "bool"
        }
      ],
      "name": "ApprovalForAll",
      "type": "event"
    },
    {
      "anonymous": false,
      "inputs": [
        {
          "indexed": false,
          "internalType": "string",
          "name": "newBaseURI",
          "type": "string"
        }
      ],
      "name": "BaseURIUpdated",
      "type": "event"
    },
    {
      "anonymous": false,
      "inputs": [
        {
          "indexed": false,
          "internalType": "uint256",
          "name": "newMax",
          "type": "uint256"
        }
      ],
      "name": "MaxPerWalletUpdated",
      "type": "event"
    },
    {
      "anonymous": false,
      "inputs": [
        {
          "indexed": true,
          "internalType": "address",
          "name": "minter",
          "type": "address"
        },
        {
          "indexed": true,
          "internalType": "uint256",
          "name": "tokenId",
          "type": "uint256"
        }
      ],
      "name": "Mint",
      "type": "event"
    },
    {
      "anonymous": false,
      "inputs": [
        {
          "indexed": false,
          "internalType": "uint256",
          "name": "newPrice",
          "type": "uint256"
        }
      ],
      "name": "MintPriceUpdated",
      "type": "event"
    },
    {
      "anonymous": false,
      "inputs": [
        {
          "indexed": true,
          "internalType": "address",
          "name": "previousOwner",
          "type": "address"
        },
        {
          "indexed": true,
          "internalType": "address",
          "name": "newOwner",
          "type": "address"
        }
      ],
      "name": "OwnershipTransferred",
      "type": "event"
    },
    {
      "anonymous": false,
      "inputs": [
        {
          "indexed": false,
          "internalType": "address",
          "name": "account",
          "type": "address"
        }
      ],
      "name": "Paused",
      "type": "event"
    },
    {
      "anonymous": false,
      "inputs": [
        {
          "indexed": true,
          "internalType": "address",
          "name": "from",
          "type": "address"
        },
        {
          "indexed": true,
          "internalType": "address",
          "name": "to",
          "type": "address"
        },
        {
          "indexed": true,
          "internalType": "uint256",
          "name": "tokenId",
          "type": "uint256"
        }
      ],
      "name": "Transfer",
      "type": "event"
    },
    {
      "anonymous": false,
      "inputs": [
        {
          "indexed": false,
          "internalType": "address",
          "name": "account",
          "type": "address"
        }
      ],
      "name": "Unpaused",
      "type": "event"
    },
    {
      "inputs": [],
      "name": "MAX_SUPPLY",
      "outputs": [
        {
          "internalType": "uint256",
          "name": "",
          "type": "uint256"
        }
      ],
      "stateMutability": "view",
      "type": "function"
    },
    {
      "inputs": [
        {
          "internalType": "address",
          "name": "to",
          "type": "address"
        },
        {
          "internalType": "uint256",
          "name": "tokenId",
          "type": "uint256"
        }
      ],
      "name": "approve",
      "outputs": [],
      "stateMutability": "nonpayable",
      "type": "function"
    },
    {
      "inputs": [
        {
          "internalType": "address",
          "name": "owner",
          "type": "address"
        }
      ],
      "name": "balanceOf",
      "outputs": [
        {
          "internalType": "uint256",
          "name": "",
          "type": "uint256"
        }
      ],
      "stateMutability": "view",
      "type": "function"
    },
    {
      "inputs": [
        {
          "internalType": "uint256",
          "name": "tokenId",
          "type": "uint256"
        }
      ],
      "name": "getApproved",
      "outputs": [
        {
          "internalType": "address",
          "name": "",
          "type": "address"
        }
      ],
      "stateMutability": "view",
      "type": "function"
    },
    {
      "inputs": [
        {
          "internalType": "string",
          "name": "name",
          "type": "string"
        },
        {
          "internalType": "string",
          "name": "symbol",
          "type": "string"
        },
        {
          "internalType": "uint256",
          "name": "initialMintPrice",
          "type": "uint256"
        },
        {
          "internalType": "uint256",
          "name": "initialMaxPerWallet",
          "type": "uint256"
        },
        {
          "internalType": "string",
          "name": "initialBaseURI",
          "type": "string"
        }
      ],
      "name": "initialize",
      "outputs": [],
      "stateMutability": "nonpayable",
      "type": "function"
    },
    {
      "inputs": [
        {
          "internalType": "address",
          "name": "owner",
          "type": "address"
        },
        {
          "internalType": "address",
          "name": "operator",
          "type": "address"
        }
      ],
      "name": "isApprovedForAll",
      "outputs": [
        {
          "internalType": "bool",
          "name": "",
          "type": "bool"
        }
      ],
      "stateMutability": "view",
      "type": "function"
    },
    {
      "inputs": [],
      "name": "maxPerWallet",
      "outputs": [
        {
          "internalType": "uint256",
          "name": "",
          "type": "uint256"
        }
      ],
      "stateMutability": "view",
      "type": "function"
    },
    {
      "inputs": [],
      "name": "mint",
      "outputs": [],
      "stateMutability": "payable",
      "type": "function"
    },
    {
      "inputs": [],
      "name": "mintPrice",
      "outputs": [
        {
          "internalType": "uint256",
          "name": "",
          "type": "uint256"
        }
      ],
      "stateMutability": "view",
      "type": "function"
    },
    {
      "inputs": [
        {
          "internalType": "address",
          "name": "",
          "type": "address"
        }
      ],
      "name": "mintedPerWallet",
      "outputs": [
        {
          "internalType": "uint256",
          "name": "",
          "type": "uint256"
        }
      ],
      "stateMutability": "view",
      "type": "function"
    },
    {
      "inputs": [],
      "name": "name",
      "outputs": [
        {
          "internalType": "string",
          "name": "",
          "type": "string"
        }
      ],
      "stateMutability": "view",
      "type": "function"
    },
    {
      "inputs": [],
      "name": "owner",
      "outputs": [
        {
          "internalType": "address",
          "name": "",
          "type": "address"
        }
      ],
      "stateMutability": "view",
      "type": "function"
    },
    {
      "inputs": [
        {
          "internalType": "address",
          "name": "to",
          "type": "address"
        }
      ],
      "name": "ownerMint",
      "outputs": [],
      "stateMutability": "nonpayable",
      "type": "function"
    },
    {
      "inputs": [
        {
          "internalType": "uint256",
          "name": "tokenId",
          "type": "uint256"
        }
      ],
      "name": "ownerOf",
      "outputs": [
        {
          "internalType": "address",
          "name": "",
          "type": "address"
        }
      ],
      "stateMutability": "view",
      "type": "function"
    },
    {
      "inputs": [],
      "name": "pause",
      "outputs": [],
      "stateMutability": "nonpayable",
      "type": "function"
    },
    {
      "inputs": [],
      "name": "paused",
      "outputs": [
        {
          "internalType": "bool",
          "name": "",
          "type": "bool"
        }
      ],
      "stateMutability": "view",
      "type": "function"
    },
    {
      "inputs": [],
      "name": "renounceOwnership",
      "outputs": [],
      "stateMutability": "nonpayable",
      "type": "function"
    },
    {
      "inputs": [
        {
          "internalType": "address",
          "name": "from",
          "type": "address"
        },
        {
          "internalType": "address",
          "name": "to",
          "type": "address"
        },
        {
          "internalType": "uint256",
          "name": "tokenId",
          "type": "uint256"
        }
      ],
      "name": "safeTransferFrom",
      "outputs": [],
      "stateMutability": "nonpayable",
      "type": "function"
    },
    {
      "inputs": [
        {
          "internalType": "address",
          "name": "from",
          "type": "address"
        },
        {
          "internalType": "address",
          "name": "to",
          "type": "address"
        },
        {
          "internalType": "uint256",
          "name": "tokenId",
          "type": "uint256"
        },
        {
          "internalType": "bytes",
          "name": "_data",
          "type": "bytes"
        }
      ],
      "name": "safeTransferFrom",
      "outputs": [],
      "stateMutability": "nonpayable",
      "type": "function"
    },
    {
      "inputs": [
        {
          "internalType": "address",
          "name": "operator",
          "type": "address"
        },
        {
          "internalType": "bool",
          "name": "approved",
          "type": "bool"
        }
      ],
      "name": "setApprovalForAll",
      "outputs": [],
      "stateMutability": "nonpayable",
      "type": "function"
    },
    {
      "inputs": [
        {
          "internalType": "string",
          "name": "uri",
          "type": "string"
        }
      ],
      "name": "setBaseURI",
      "outputs": [],
      "stateMutability": "nonpayable",
      "type": "function"
    },
    {
      "inputs": [
        {
          "internalType": "uint256",
          "name": "newMax",
          "type": "uint256"
        }
      ],
      "name": "setMaxPerWallet",
      "outputs": [],
      "stateMutability": "nonpayable",
      "type": "function"
    },
    {
      "inputs": [
        {
          "internalType": "uint256",
          "name": "newPrice",
          "type": "uint256"
        }
      ],
      "name": "setMintPrice",
      "outputs": [],
      "stateMutability": "nonpayable",
      "type": "function"
    },
    {
      "inputs": [
        {
          "internalType": "bytes4",
          "name": "interfaceId",
          "type": "bytes4"
        }
      ],
      "name": "supportsInterface",
      "outputs": [
        {
          "internalType": "bool",
          "name": "",
          "type": "bool"
        }
      ],
      "stateMutability": "view",
      "type": "function"
    },
    {
      "inputs": [],
      "name": "symbol",
      "outputs": [
        {
          "internalType": "string",
          "name": "",
          "type": "string"
        }
      ],
      "stateMutability": "view",
      "type": "function"
    },
    {
      "inputs": [
        {
          "internalType": "uint256",
          "name": "index",
          "type": "uint256"
        }
      ],
      "name": "tokenByIndex",
      "outputs": [
        {
          "internalType": "uint256",
          "name": "",
          "type": "uint256"
        }
      ],
      "stateMutability": "view",
      "type": "function"
    },
    {
      "inputs": [
        {
          "internalType": "address",
          "name": "owner",
          "type": "address"
        },
        {
          "internalType": "uint256",
          "name": "index",
          "type": "uint256"
        }
      ],
      "name": "tokenOfOwnerByIndex",
      "outputs": [
        {
          "internalType": "uint256",
          "name": "",
          "type": "uint256"
        }
      ],
      "stateMutability": "view",
      "type": "function"
    },
    {
      "inputs": [
        {
          "internalType": "uint256",
          "name": "tokenId",
          "type": "uint256"
        }
      ],
      "name": "tokenURI",
      "outputs": [
        {
          "internalType": "string",
          "name": "",
          "type": "string"
        }
      ],
      "stateMutability": "view",
      "type": "function"
    },
    {
      "inputs": [],
      "name": "totalMinted",
      "outputs": [
        {
          "internalType": "uint256",
          "name": "",
          "type": "uint256"
        }
      ],
      "stateMutability": "view",
      "type": "function"
    },
    {
      "inputs": [],
      "name": "totalSupply",
      "outputs": [
        {
          "internalType": "uint256",
          "name": "",
          "type": "uint256"
        }
      ],
      "stateMutability": "view",
      "type": "function"
    },
    {
      "inputs": [
        {
          "internalType": "address",
          "name": "from",
          "type": "address"
        },
        {
          "internalType": "address",
          "name": "to",
          "type": "address"
        },
        {
          "internalType": "uint256",
          "name": "tokenId",
          "type": "uint256"
        }
      ],
      "name": "transferFrom",
      "outputs": [],
      "stateMutability": "nonpayable",
      "type": "function"
    },
    {
      "inputs": [
        {
          "internalType": "address",
          "name": "newOwner",
          "type": "address"
        }
      ],
      "name": "transferOwnership",
      "outputs": [],
      "stateMutability": "nonpayable",
      "type": "function"
    },
    {
      "inputs": [],
      "name": "unpause",
      "outputs": [],
      "stateMutability": "nonpayable",
      "type": "function"
    },
    {
      "inputs": [],
      "name": "withdraw",
      "outputs": [],
      "stateMutability": "nonpayable",
      "type": "function"
    }
  ],
  "bytecode": "0x608060405234801561001057600080fd5b50614d85806100206000396000f3fe6080604052600436106101f95760003560e01c806355f804b31161010d57806395d89b41116100a0578063c87b56dd1161006f578063c87b56dd146106da578063e268e4d314610717578063e985e9c514610740578063f2fde38b1461077d578063f4a0a528146107a6576101f9565b806395d89b4114610632578063a22cb4651461065d578063a2309ff814610686578063b88d4fde146106b1576101f9565b806370a08231116100dc57806370a082311461059c578063715018a6146105d95780638456cb59146105f05780638da5cb5b14610607576101f9565b806355f804b3146104e05780635c975abb146105095780636352211e146105345780636817c76c14610571576101f9565b806323b872dd116101905780633ccfd60b1161015f5780633ccfd60b146104215780633f4ba83a1461043857806342842e0e1461044f578063453c2310146104785780634f6ccce7146104a3576101f9565b806323b872dd146103535780632f745c591461037c57806332cb6b0c146103b95780633a602b4d146103e4576101f9565b8063100c58b4116101cc578063100c58b4146102cc5780631249c58b146102f557806318160ddd146102ff5780631e3bcc8e1461032a576101f9565b806301ffc9a7146101fe57806306fdde031461023b578063081812fc14610266578063095ea7b3146102a3575b600080fd5b34801561020a57600080fd5b50610225600480360381019061022091906132d6565b6107cf565b604051610232919061331e565b60405180910390f35b34801561024757600080fd5b50610250610849565b60405161025d91906133d2565b60405180910390f35b34801561027257600080fd5b5061028d6004803603810190610288919061342a565b6108db565b60405161029a9190613498565b60405180910390f35b3480156102af57600080fd5b506102ca60048036038101906102c591906134df565b610960565b005b3480156102d857600080fd5b506102f360048036038101906102ee9190613654565b610a77565b005b6102fd610bb4565b005b34801561030b57600080fd5b50610314610e28565b6040516103219190613732565b60405180910390f35b34801561033657600080fd5b50610351600480360381019061034c919061374d565b610e35565b005b34801561035f57600080fd5b5061037a6004803603810190610375919061377a565b610fbb565b005b34801561038857600080fd5b506103a3600480360381019061039e91906134df565b61101b565b6040516103b09190613732565b60405180910390f35b3480156103c557600080fd5b506103ce6110c0565b6040516103db9190613732565b60405180910390f35b3480156103f057600080fd5b5061040b6004803603810190610406919061374d565b6110c6565b6040516104189190613732565b60405180910390f35b34801561042d57600080fd5b506104366110df565b005b34801561044457600080fd5b5061044d611200565b005b34801561045b57600080fd5b506104766004803603810190610471919061377a565b611286565b005b34801561048457600080fd5b5061048d6112a6565b60405161049a9190613732565b60405180910390f35b3480156104af57600080fd5b506104ca60048036038101906104c5919061342a565b6112ad565b6040516104d79190613732565b60405180910390f35b3480156104ec57600080fd5b50610507600480360381019061050291906137cd565b61131e565b005b34801561051557600080fd5b5061051e6113e5565b60405161052b919061331e565b60405180910390f35b34801561054057600080fd5b5061055b6004803603810190610556919061342a565b6113fd565b6040516105689190613498565b60405180910390f35b34801561057d57600080fd5b506105866114ae565b6040516105939190613732565b60405180910390f35b3480156105a857600080fd5b506105c360048036038101906105be919061374d565b6114b5565b6040516105d09190613732565b60405180910390f35b3480156105e557600080fd5b506105ee61156c565b005b3480156105fc57600080fd5b506106056115f4565b005b34801561061357600080fd5b5061061c61167a565b6040516106299190613498565b60405180910390f35b34801561063e57600080fd5b506106476116a4565b60405161065491906133d2565b60405180910390f35b34801561066957600080fd5b50610684600480360381019061067f9190613842565b611736565b005b34801561069257600080fd5b5061069b61174c565b6040516106a89190613732565b60405180910390f35b3480156106bd57600080fd5b506106d860048036038101906106d39190613923565b611753565b005b3480156106e657600080fd5b5061070160048036038101906106fc919061342a565b6117b5565b60405161070e91906133d2565b60405180910390f35b34801561072357600080fd5b5061073e6004803603810190610739919061342a565b61185c565b005b34801561074c57600080fd5b50610767600480360381019061076291906139a6565b61191a565b604051610774919061331e565b60405180910390f35b34801561078957600080fd5b506107a4600480360381019061079f919061374d565b6119ae565b005b3480156107b257600080fd5b506107cd60048036038101906107c8919061342a565b611aa5565b005b60007f780e9d63000000000000000000000000000000000000000000000000000000007bffffffffffffffffffffffffffffffffffffffffffffffffffffffff1916827bffffffffffffffffffffffffffffffffffffffffffffffffffffffff19161480610842575061084182611b63565b5b9050919050565b60606065805461085890613a15565b80601f016020809104026020016040519081016040528092919081815260200182805461088490613a15565b80156108d15780601f106108a6576101008083540402835291602001916108d1565b820191906000526020600020905b8154815290600101906020018083116108b457829003601f168201915b5050505050905090565b60006108e682611c45565b610925576040517f08c379a000000000000000000000000000000000000000000000000000000000815260040161091c90613ab8565b60405180910390fd5b6069600083815260200190815260200160002060009054906101000a900473ffffffffffffffffffffffffffffffffffffffff169050919050565b600061096b826113fd565b90508073ffffffffffffffffffffffffffffffffffffffff168373ffffffffffffffffffffffffffffffffffffffff16036109db576040517f08c379a00000000000000000000000000000000000000000000000000000000081526004016109d290613b4a565b60405180910390fd5b8073ffffffffffffffffffffffffffffffffffffffff166109fa611cb1565b73ffffffffffffffffffffffffffffffffffffffff161480610a295750610a2881610a23611cb1565b61191a565b5b610a68576040517f08c379a0000000000000000000000000000000000000000000000000000000008152600401610a5f90613bdc565b60405180910390fd5b610a728383611cb9565b505050565b600060019054906101000a900460ff16610a9f5760008054906101000a900460ff1615610aa8565b610aa7611d72565b5b610ae7576040517f08c379a0000000000000000000000000000000000000000000000000000000008152600401610ade90613c6e565b60405180910390fd5b60008060019054906101000a900460ff161590508015610b37576001600060016101000a81548160ff02191690831515021790555060016000806101000a81548160ff0219169083151502179055505b610b418686611d83565b610b49611de0565b610b51611e31565b610b59611e8a565b610b61611ee3565b8361015f819055508261016081905550816101629081610b819190613e3a565b506000610161819055508015610bac5760008060016101000a81548160ff0219169083151502179055505b505050505050565b600260fb5403610bf9576040517f08c379a0000000000000000000000000000000000000000000000000000000008152600401610bf090613f58565b60405180910390fd5b600260fb81905550610c096113e5565b15610c49576040517f08c379a0000000000000000000000000000000000000000000000000000000008152600401610c4090613fc4565b60405180910390fd5b61015f54341015610c8f576040517f08c379a0000000000000000000000000000000000000000000000000000000008152600401610c8690614030565b60405180910390fd5b61115c6101615410610cd6576040517f08c379a0000000000000000000000000000000000000000000000000000000008152600401610ccd9061409c565b60405180910390fd5b6101605461016360003373ffffffffffffffffffffffffffffffffffffffff1673ffffffffffffffffffffffffffffffffffffffff1681526020019081526020016000205410610d5b576040517f08c379a0000000000000000000000000000000000000000000000000000000008152600401610d5290614108565b60405180910390fd5b6000600161016154610d6d9190614157565b9050610d793382611f3c565b8061016181905550600161016360003373ffffffffffffffffffffffffffffffffffffffff1673ffffffffffffffffffffffffffffffffffffffff1681526020019081526020016000206000828254610dd29190614157565b92505081905550803373ffffffffffffffffffffffffffffffffffffffff167f0f6798a560793a54c3bcfe86a93cde1e73087d944c0ea20544137d412139688560405160405180910390a350600160fb81905550565b6000609980549050905090565b610e3d611cb1565b73ffffffffffffffffffffffffffffffffffffffff16610e5b61167a565b73ffffffffffffffffffffffffffffffffffffffff1614610eb1576040517f08c379a0000000000000000000000000000000000000000000000000000000008152600401610ea8906141f9565b60405180910390fd5b600260fb5403610ef6576040517f08c379a0000000000000000000000000000000000000000000000000000000008152600401610eed90613f58565b60405180910390fd5b600260fb8190555061115c6101615410610f45576040517f08c379a0000000000000000000000000000000000000000000000000000000008152600401610f3c9061409c565b60405180910390fd5b6000600161016154610f579190614157565b9050610f638282611f3c565b8061016181905550808273ffffffffffffffffffffffffffffffffffffffff167f0f6798a560793a54c3bcfe86a93cde1e73087d944c0ea20544137d412139688560405160405180910390a350600160fb8190555050565b610fcc610fc6611cb1565b82611f5a565b61100b576040517f08c379a00000000000000000000000000000000000000000000000000000000081526004016110029061428b565b60405180910390fd5b611016838383612038565b505050565b6000611026836114b5565b8210611067576040517f08c379a000000000000000000000000000000000000000000000000000000000815260040161105e9061431d565b60405180910390fd5b609760008473ffffffffffffffffffffffffffffffffffffffff1673ffffffffffffffffffffffffffffffffffffffff168152602001908152602001600020600083815260200190815260200160002054905092915050565b61115c81565b6101636020528060005260406000206000915090505481565b6110e7611cb1565b73ffffffffffffffffffffffffffffffffffffffff1661110561167a565b73ffffffffffffffffffffffffffffffffffffffff161461115b576040517f08c379a0000000000000000000000000000000000000000000000000000000008152600401611152906141f9565b60405180910390fd5b600260fb54036111a0576040517f08c379a000000000000000000000000000000000000000000000000000000000815260040161119790613f58565b60405180910390fd5b600260fb819055506111b061167a565b73ffffffffffffffffffffffffffffffffffffffff166108fc479081150290604051600060405180830381858888f193505050501580156111f5573d6000803e3d6000fd5b50600160fb81905550565b611208611cb1565b73ffffffffffffffffffffffffffffffffffffffff1661122661167a565b73ffffffffffffffffffffffffffffffffffffffff161461127c576040517f08c379a0000000000000000000000000000000000000000000000000000000008152600401611273906141f9565b60405180910390fd5b61128461229e565b565b6112a183838360405180602001604052806000815250611753565b505050565b6101605481565b60006112b7610e28565b82106112f8576040517f08c379a00000000000000000000000000000000000000000000000000000000081526004016112ef906143af565b60405180910390fd5b6099828154811061130c5761130b6143cf565b5b90600052602060002001549050919050565b611326611cb1565b73ffffffffffffffffffffffffffffffffffffffff1661134461167a565b73ffffffffffffffffffffffffffffffffffffffff161461139a576040517f08c379a0000000000000000000000000000000000000000000000000000000008152600401611391906141f9565b60405180910390fd5b8061016290816113aa9190613e3a565b507f6741b2fc379fad678116fe3d4d4b9a1a184ab53ba36b86ad0fa66340b1ab41ad816040516113da91906133d2565b60405180910390a150565b600061012d60009054906101000a900460ff16905090565b6000806067600084815260200190815260200160002060009054906101000a900473ffffffffffffffffffffffffffffffffffffffff169050600073ffffffffffffffffffffffffffffffffffffffff168173ffffffffffffffffffffffffffffffffffffffff16036114a5576040517f08c379a000000000000000000000000000000000000000000000000000000000815260040161149c90614470565b60405180910390fd5b80915050919050565b61015f5481565b60008073ffffffffffffffffffffffffffffffffffffffff168273ffffffffffffffffffffffffffffffffffffffff1603611525576040517f08c379a000000000000000000000000000000000000000000000000000000000815260040161151c90614502565b60405180910390fd5b606860008373ffffffffffffffffffffffffffffffffffffffff1673ffffffffffffffffffffffffffffffffffffffff168152602001908152602001600020549050919050565b611574611cb1565b73ffffffffffffffffffffffffffffffffffffffff1661159261167a565b73ffffffffffffffffffffffffffffffffffffffff16146115e8576040517f08c379a00000000000000000000000000000000000000000000000000000000081526004016115df906141f9565b60405180910390fd5b6115f26000612341565b565b6115fc611cb1565b73ffffffffffffffffffffffffffffffffffffffff1661161a61167a565b73ffffffffffffffffffffffffffffffffffffffff1614611670576040517f08c379a0000000000000000000000000000000000000000000000000000000008152600401611667906141f9565b60405180910390fd5b611678612407565b565b600060c960009054906101000a900473ffffffffffffffffffffffffffffffffffffffff16905090565b6060606680546116b390613a15565b80601f01602080910402602001604051908101604052809291908181526020018280546116df90613a15565b801561172c5780601f106117015761010080835404028352916020019161172c565b820191906000526020600020905b81548152906001019060200180831161170f57829003601f168201915b5050505050905090565b611748611741611cb1565b83836124ab565b5050565b6101615481565b61176461175e611cb1565b83611f5a565b6117a3576040517f08c379a000000000000000000000000000000000000000000000000000000000815260040161179a9061428b565b60405180910390fd5b6117af84848484612617565b50505050565b60606117c082611c45565b6117ff576040517f08c379a00000000000000000000000000000000000000000000000000000000081526004016117f690614594565b60405180910390fd5b6000611809612673565b905060008151116118295760405180602001604052806000815250611854565b8061183384612706565b6040516020016118449291906145f0565b6040516020818303038152906040525b915050919050565b611864611cb1565b73ffffffffffffffffffffffffffffffffffffffff1661188261167a565b73ffffffffffffffffffffffffffffffffffffffff16146118d8576040517f08c379a00000000000000000000000000000000000000000000000000000000081526004016118cf906141f9565b60405180910390fd5b80610160819055507f97e4f91a4b7e108aff6d29a03d7b9f94705ad90ed51b377784a1943ea32257e78160405161190f9190613732565b60405180910390a150565b6000606a60008473ffffffffffffffffffffffffffffffffffffffff1673ffffffffffffffffffffffffffffffffffffffff16815260200190815260200160002060008373ffffffffffffffffffffffffffffffffffffffff1673ffffffffffffffffffffffffffffffffffffffff16815260200190815260200160002060009054906101000a900460ff16905092915050565b6119b6611cb1565b73ffffffffffffffffffffffffffffffffffffffff166119d461167a565b73ffffffffffffffffffffffffffffffffffffffff1614611a2a576040517f08c379a0000000000000000000000000000000000000000000000000000000008152600401611a21906141f9565b60405180910390fd5b600073ffffffffffffffffffffffffffffffffffffffff168173ffffffffffffffffffffffffffffffffffffffff1603611a99576040517f08c379a0000000000000000000000000000000000000000000000000000000008152600401611a9090614686565b60405180910390fd5b611aa281612341565b50565b611aad611cb1565b73ffffffffffffffffffffffffffffffffffffffff16611acb61167a565b73ffffffffffffffffffffffffffffffffffffffff1614611b21576040517f08c379a0000000000000000000000000000000000000000000000000000000008152600401611b18906141f9565b60405180910390fd5b8061015f819055507f525b762709cc2a983aec5ccdfd807a061f993c91090b5bcd7da92ca254976aaa81604051611b589190613732565b60405180910390a150565b60007f80ac58cd000000000000000000000000000000000000000000000000000000007bffffffffffffffffffffffffffffffffffffffffffffffffffffffff1916827bffffffffffffffffffffffffffffffffffffffffffffffffffffffff19161480611c2e57507f5b5e139f000000000000000000000000000000000000000000000000000000007bffffffffffffffffffffffffffffffffffffffffffffffffffffffff1916827bffffffffffffffffffffffffffffffffffffffffffffffffffffffff1916145b80611c3e5750611c3d82612866565b5b9050919050565b60008073ffffffffffffffffffffffffffffffffffffffff166067600084815260200190815260200160002060009054906101000a900473ffffffffffffffffffffffffffffffffffffffff1673ffffffffffffffffffffffffffffffffffffffff1614159050919050565b600033905090565b816069600083815260200190815260200160002060006101000a81548173ffffffffffffffffffffffffffffffffffffffff021916908373ffffffffffffffffffffffffffffffffffffffff160217905550808273ffffffffffffffffffffffffffffffffffffffff16611d2c836113fd565b73ffffffffffffffffffffffffffffffffffffffff167f8c5be1e5ebec7d5bd14f71427d1e84f3dd0314c0f7b2291e5b200ac8c7c3b92560405160405180910390a45050565b6000611d7d306128d0565b15905090565b600060019054906101000a900460ff16611dd2576040517f08c379a0000000000000000000000000000000000000000000000000000000008152600401611dc990614718565b60405180910390fd5b611ddc82826128f3565b5050565b600060019054906101000a900460ff16611e2f576040517f08c379a0000000000000000000000000000000000000000000000000000000008152600401611e2690614718565b60405180910390fd5b565b600060019054906101000a900460ff16611e80576040517f08c379a0000000000000000000000000000000000000000000000000000000008152600401611e7790614718565b60405180910390fd5b611e88612966565b565b600060019054906101000a900460ff16611ed9576040517f08c379a0000000000000000000000000000000000000000000000000000000008152600401611ed090614718565b60405180910390fd5b611ee16129c7565b565b600060019054906101000a900460ff16611f32576040517f08c379a0000000000000000000000000000000000000000000000000000000008152600401611f2990614718565b60405180910390fd5b611f3a612a20565b565b611f56828260405180602001604052806000815250612a8d565b5050565b6000611f6582611c45565b611fa4576040517f08c379a0000000000000000000000000000000000000000000000000000000008152600401611f9b906147aa565b60405180910390fd5b6000611faf836113fd565b90508073ffffffffffffffffffffffffffffffffffffffff168473ffffffffffffffffffffffffffffffffffffffff16148061201e57508373ffffffffffffffffffffffffffffffffffffffff16612006846108db565b73ffffffffffffffffffffffffffffffffffffffff16145b8061202f575061202e818561191a565b5b91505092915050565b8273ffffffffffffffffffffffffffffffffffffffff16612058826113fd565b73ffffffffffffffffffffffffffffffffffffffff16146120ae576040517f08c379a00000000000000000000000000000000000000000000000000000000081526004016120a59061483c565b60405180910390fd5b600073ffffffffffffffffffffffffffffffffffffffff168273ffffffffffffffffffffffffffffffffffffffff160361211d576040517f08c379a0000000000000000000000000000000000000000000000000000000008152600401612114906148ce565b60405180910390fd5b612128838383612ae8565b612133600082611cb9565b6001606860008573ffffffffffffffffffffffffffffffffffffffff1673ffffffffffffffffffffffffffffffffffffffff168152602001908152602001600020600082825461218391906148ee565b925050819055506001606860008473ffffffffffffffffffffffffffffffffffffffff1673ffffffffffffffffffffffffffffffffffffffff16815260200190815260200160002060008282546121da9190614157565b92505081905550816067600083815260200190815260200160002060006101000a81548173ffffffffffffffffffffffffffffffffffffffff021916908373ffffffffffffffffffffffffffffffffffffffff160217905550808273ffffffffffffffffffffffffffffffffffffffff168473ffffffffffffffffffffffffffffffffffffffff167fddf252ad1be2c89b69c2b068fc378daa952ba7f163c4a11628f55a4df523b3ef60405160405180910390a4612299838383612bfa565b505050565b6122a66113e5565b6122e5576040517f08c379a00000000000000000000000000000000000000000000000000000000081526004016122dc9061496e565b60405180910390fd5b600061012d60006101000a81548160ff0219169083151502179055507f5db9ee0a495bf2e6ff9c91a7834c1ba4fdd244a5e8aa4e537bd38aeae4b073aa61232a611cb1565b6040516123379190613498565b60405180910390a1565b600060c960009054906101000a900473ffffffffffffffffffffffffffffffffffffffff1690508160c960006101000a81548173ffffffffffffffffffffffffffffffffffffffff021916908373ffffffffffffffffffffffffffffffffffffffff1602179055508173ffffffffffffffffffffffffffffffffffffffff168173ffffffffffffffffffffffffffffffffffffffff167f8be0079c531659141344cd1fd0a4f28419497f9722a3daafe3b4186f6b6457e060405160405180910390a35050565b61240f6113e5565b1561244f576040517f08c379a000000000000000000000000000000000000000000000000000000000815260040161244690613fc4565b60405180910390fd5b600161012d60006101000a81548160ff0219169083151502179055507f62e78cea01bee320cd4e420270b5ea74000d11b0c9f74754ebdbfc544b05a258612494611cb1565b6040516124a19190613498565b60405180910390a1565b8173ffffffffffffffffffffffffffffffffffffffff168373ffffffffffffffffffffffffffffffffffffffff1603612519576040517f08c379a0000000000000000000000000000000000000000000000000000000008152600401612510906149da565b60405180910390fd5b80606a60008573ffffffffffffffffffffffffffffffffffffffff1673ffffffffffffffffffffffffffffffffffffffff16815260200190815260200160002060008473ffffffffffffffffffffffffffffffffffffffff1673ffffffffffffffffffffffffffffffffffffffff16815260200190815260200160002060006101000a81548160ff0219169083151502179055508173ffffffffffffffffffffffffffffffffffffffff168373ffffffffffffffffffffffffffffffffffffffff167f17307eab39ab6107e8899845ad3d59bd9653f200f220920489ca2b5937696c318360405161260a919061331e565b60405180910390a3505050565b612622848484612038565b61262e84848484612bff565b61266d576040517f08c379a000000000000000000000000000000000000000000000000000000000815260040161266490614a6c565b60405180910390fd5b50505050565b6060610162805461268390613a15565b80601f01602080910402602001604051908101604052809291908181526020018280546126af90613a15565b80156126fc5780601f106126d1576101008083540402835291602001916126fc565b820191906000526020600020905b8154815290600101906020018083116126df57829003601f168201915b5050505050905090565b60606000820361274d576040518060400160405280600181526020017f30000000000000000000000000000000000000000000000000000000000000008152509050612861565b600082905060005b6000821461277f57808061276890614a8c565b915050600a826127789190614b03565b9150612755565b60008167ffffffffffffffff81111561279b5761279a613529565b5b6040519080825280601f01601f1916602001820160405280156127cd5781602001600182028036833780820191505090505b5090505b6000851461285a576001826127e691906148ee565b9150600a856127f59190614b34565b60306128019190614157565b60f81b818381518110612817576128166143cf565b5b60200101907effffffffffffffffffffffffffffffffffffffffffffffffffffffffffffff1916908160001a905350600a856128539190614b03565b94506127d1565b8093505050505b919050565b60007f01ffc9a7000000000000000000000000000000000000000000000000000000007bffffffffffffffffffffffffffffffffffffffffffffffffffffffff1916827bffffffffffffffffffffffffffffffffffffffffffffffffffffffff1916149050919050565b6000808273ffffffffffffffffffffffffffffffffffffffff163b119050919050565b600060019054906101000a900460ff16612942576040517f08c379a000000000000000000000000000000000000000000000000000000000815260040161293990614718565b60405180910390fd5b81606590816129519190613e3a565b5080606690816129619190613e3a565b505050565b600060019054906101000a900460ff166129b5576040517f08c379a00000000000000000000000000000000000000000000000000000000081526004016129ac90614718565b60405180910390fd5b6129c56129c0611cb1565b612341565b565b600060019054906101000a900460ff16612a16576040517f08c379a0000000000000000000000000000000000000000000000000000000008152600401612a0d90614718565b60405180910390fd5b600160fb81905550565b600060019054906101000a900460ff16612a6f576040517f08c379a0000000000000000000000000000000000000000000000000000000008152600401612a6690614718565b60405180910390fd5b600061012d60006101000a81548160ff021916908315150217905550565b612a978383612d86565b612aa46000848484612bff565b612ae3576040517f08c379a0000000000000000000000000000000000000000000000000000000008152600401612ada90614a6c565b60405180910390fd5b505050565b612af3838383612f5f565b600073ffffffffffffffffffffffffffffffffffffffff168373ffffffffffffffffffffffffffffffffffffffff1603612b3557612b3081612f64565b612b74565b8173ffffffffffffffffffffffffffffffffffffffff168373ffffffffffffffffffffffffffffffffffffffff1614612b7357612b728382612fad565b5b5b600073ffffffffffffffffffffffffffffffffffffffff168273ffffffffffffffffffffffffffffffffffffffff1603612bb657612bb18161311a565b612bf5565b8273ffffffffffffffffffffffffffffffffffffffff168273ffffffffffffffffffffffffffffffffffffffff1614612bf457612bf382826131eb565b5b5b505050565b505050565b6000612c208473ffffffffffffffffffffffffffffffffffffffff166128d0565b15612d79578373ffffffffffffffffffffffffffffffffffffffff1663150b7a02612c49611cb1565b8786866040518563ffffffff1660e01b8152600401612c6b9493929190614bba565b6020604051808303816000875af1925050508015612ca757506040513d601f19601f82011682018060405250810190612ca49190614c1b565b60015b612d29573d8060008114612cd7576040519150601f19603f3d011682016040523d82523d6000602084013e612cdc565b606091505b506000815103612d21576040517f08c379a0000000000000000000000000000000000000000000000000000000008152600401612d1890614a6c565b60405180910390fd5b805181602001fd5b63150b7a0260e01b7bffffffffffffffffffffffffffffffffffffffffffffffffffffffff1916817bffffffffffffffffffffffffffffffffffffffffffffffffffffffff191614915050612d7e565b600190505b949350505050565b600073ffffffffffffffffffffffffffffffffffffffff168273ffffffffffffffffffffffffffffffffffffffff1603612df5576040517f08c379a0000000000000000000000000000000000000000000000000000000008152600401612dec90614c94565b60405180910390fd5b612dfe81611c45565b15612e3e576040517f08c379a0000000000000000000000000000000000000000000000000000000008152600401612e3590614d00565b60405180910390fd5b612e4a60008383612ae8565b6001606860008473ffffffffffffffffffffffffffffffffffffffff1673ffffffffffffffffffffffffffffffffffffffff1681526020019081526020016000206000828254612e9a9190614157565b92505081905550816067600083815260200190815260200160002060006101000a81548173ffffffffffffffffffffffffffffffffffffffff021916908373ffffffffffffffffffffffffffffffffffffffff160217905550808273ffffffffffffffffffffffffffffffffffffffff16600073ffffffffffffffffffffffffffffffffffffffff167fddf252ad1be2c89b69c2b068fc378daa952ba7f163c4a11628f55a4df523b3ef60405160405180910390a4612f5b60008383612bfa565b5050565b505050565b609980549050609a600083815260200190815260200160002081905550609981908060018154018082558091505060019003906000526020600020016000909190919091505550565b60006001612fba846114b5565b612fc491906148ee565b90506000609860008481526020019081526020016000205490508181146130a9576000609760008673ffffffffffffffffffffffffffffffffffffffff1673ffffffffffffffffffffffffffffffffffffffff168152602001908152602001600020600084815260200190815260200160002054905080609760008773ffffffffffffffffffffffffffffffffffffffff1673ffffffffffffffffffffffffffffffffffffffff168152602001908152602001600020600084815260200190815260200160002081905550816098600083815260200190815260200160002081905550505b6098600084815260200190815260200160002060009055609760008573ffffffffffffffffffffffffffffffffffffffff1673ffffffffffffffffffffffffffffffffffffffff16815260200190815260200160002060008381526020019081526020016000206000905550505050565b6000600160998054905061312e91906148ee565b90506000609a600084815260200190815260200160002054905060006099838154811061315e5761315d6143cf565b5b9060005260206000200154905080609983815481106131805761317f6143cf565b5b906000526020600020018190555081609a600083815260200190815260200160002081905550609a60008581526020019081526020016000206000905560998054806131cf576131ce614d20565b5b6001900381819060005260206000200160009055905550505050565b60006131f6836114b5565b905081609760008573ffffffffffffffffffffffffffffffffffffffff1673ffffffffffffffffffffffffffffffffffffffff168152602001908152602001600020600083815260200190815260200160002081905550806098600084815260200190815260200160002081905550505050565b6000604051905090565b600080fd5b600080fd5b60007fffffffff0000000000000000000000000000000000000000000000000000000082169050919050565b6132b38161327e565b81146132be57600080fd5b50565b6000813590506132d0816132aa565b92915050565b6000602082840312156132ec576132eb613274565b5b60006132fa848285016132c1565b91505092915050565b60008115159050919050565b61331881613303565b82525050565b6000602082019050613333600083018461330f565b92915050565b600081519050919050565b600082825260208201905092915050565b60005b83811015613373578082015181840152602081019050613358565b83811115613382576000848401525b50505050565b6000601f19601f8301169050919050565b60006133a482613339565b6133ae8185613344565b93506133be818560208601613355565b6133c781613388565b840191505092915050565b600060208201905081810360008301526133ec8184613399565b905092915050565b6000819050919050565b613407816133f4565b811461341257600080fd5b50565b600081359050613424816133fe565b92915050565b6000602082840312156134405761343f613274565b5b600061344e84828501613415565b91505092915050565b600073ffffffffffffffffffffffffffffffffffffffff82169050919050565b600061348282613457565b9050919050565b61349281613477565b82525050565b60006020820190506134ad6000830184613489565b92915050565b6134bc81613477565b81146134c757600080fd5b50565b6000813590506134d9816134b3565b92915050565b600080604083850312156134f6576134f5613274565b5b6000613504858286016134ca565b925050602061351585828601613415565b9150509250929050565b600080fd5b600080fd5b7f4e487b7100000000000000000000000000000000000000000000000000000000600052604160045260246000fd5b61356182613388565b810181811067ffffffffffffffff821117156135805761357f613529565b5b80604052505050565b600061359361326a565b905061359f8282613558565b919050565b600067ffffffffffffffff8211156135bf576135be613529565b5b6135c882613388565b9050602081019050919050565b82818337600083830152505050565b60006135f76135f2846135a4565b613589565b90508281526020810184848401111561361357613612613524565b5b61361e8482856135d5565b509392505050565b600082601f83011261363b5761363a61351f565b5b813561364b8482602086016135e4565b91505092915050565b600080600080600060a086880312156136705761366f613274565b5b600086013567ffffffffffffffff81111561368e5761368d613279565b5b61369a88828901613626565b955050602086013567ffffffffffffffff8111156136bb576136ba613279565b5b6136c788828901613626565b94505060406136d888828901613415565b93505060606136e988828901613415565b925050608086013567ffffffffffffffff81111561370a57613709613279565b5b61371688828901613626565b9150509295509295909350565b61372c816133f4565b82525050565b60006020820190506137476000830184613723565b92915050565b60006020828403121561376357613762613274565b5b6000613771848285016134ca565b91505092915050565b60008060006060848603121561379357613792613274565b5b60006137a1868287016134ca565b93505060206137b2868287016134ca565b92505060406137c386828701613415565b9150509250925092565b6000602082840312156137e3576137e2613274565b5b600082013567ffffffffffffffff81111561380157613800613279565b5b61380d84828501613626565b91505092915050565b61381f81613303565b811461382a57600080fd5b50565b60008135905061383c81613816565b92915050565b6000806040838503121561385957613858613274565b5b6000613867858286016134ca565b92505060206138788582860161382d565b9150509250929050565b600067ffffffffffffffff82111561389d5761389c613529565b5b6138a682613388565b9050602081019050919050565b60006138c66138c184613882565b613589565b9050828152602081018484840111156138e2576138e1613524565b5b6138ed8482856135d5565b509392505050565b600082601f83011261390a5761390961351f565b5b813561391a8482602086016138b3565b91505092915050565b6000806000806080858703121561393d5761393c613274565b5b600061394b878288016134ca565b945050602061395c878288016134ca565b935050604061396d87828801613415565b925050606085013567ffffffffffffffff81111561398e5761398d613279565b5b61399a878288016138f5565b91505092959194509250565b600080604083850312156139bd576139bc613274565b5b60006139cb858286016134ca565b92505060206139dc858286016134ca565b9150509250929050565b7f4e487b7100000000000000000000000000000000000000000000000000000000600052602260045260246000fd5b60006002820490506001821680613a2d57607f821691505b602082108103613a4057613a3f6139e6565b5b50919050565b7f4552433732313a20617070726f76656420717565727920666f72206e6f6e657860008201527f697374656e7420746f6b656e0000000000000000000000000000000000000000602082015250565b6000613aa2602c83613344565b9150613aad82613a46565b604082019050919050565b60006020820190508181036000830152613ad181613a95565b9050919050565b7f4552433732313a20617070726f76616c20746f2063757272656e74206f776e6560008201527f7200000000000000000000000000000000000000000000000000000000000000602082015250565b6000613b34602183613344565b9150613b3f82613ad8565b604082019050919050565b60006020820190508181036000830152613b6381613b27565b9050919050565b7f4552433732313a20617070726f76652063616c6c6572206973206e6f74206f7760008201527f6e6572206e6f7220617070726f76656420666f7220616c6c0000000000000000602082015250565b6000613bc6603883613344565b9150613bd182613b6a565b604082019050919050565b60006020820190508181036000830152613bf581613bb9565b9050919050565b7f496e697469616c697a61626c653a20636f6e747261637420697320616c72656160008201527f647920696e697469616c697a6564000000000000000000000000000000000000602082015250565b6000613c58602e83613344565b9150613c6382613bfc565b604082019050919050565b60006020820190508181036000830152613c8781613c4b565b9050919050565b60008190508160005260206000209050919050565b60006020601f8301049050919050565b600082821b905092915050565b600060088302613cf07fffffffffffffffffffffffffffffffffffffffffffffffffffffffffffffffff82613cb3565b613cfa8683613cb3565b95508019841693508086168417925050509392505050565b6000819050919050565b6000613d37613d32613d2d846133f4565b613d12565b6133f4565b9050919050565b6000819050919050565b613d5183613d1c565b613d65613d5d82613d3e565b848454613cc0565b825550505050565b600090565b613d7a613d6d565b613d85818484613d48565b505050565b5b81811015613da957613d9e600082613d72565b600181019050613d8b565b5050565b601f821115613dee57613dbf81613c8e565b613dc884613ca3565b81016020851015613dd7578190505b613deb613de385613ca3565b830182613d8a565b50505b505050565b600082821c905092915050565b6000613e1160001984600802613df3565b1980831691505092915050565b6000613e2a8383613e00565b9150826002028217905092915050565b613e4382613339565b67ffffffffffffffff811115613e5c57613e5b613529565b5b613e668254613a15565b613e71828285613dad565b600060209050601f831160018114613ea45760008415613e92578287015190505b613e9c8582613e1e565b865550613f04565b601f198416613eb286613c8e565b60005b82811015613eda57848901518255600182019150602085019450602081019050613eb5565b86831015613ef75784890151613ef3601f891682613e00565b8355505b6001600288020188555050505b505050505050565b7f5265656e7472616e637947756172643a207265656e7472616e742063616c6c00600082015250565b6000613f42601f83613344565b9150613f4d82613f0c565b602082019050919050565b60006020820190508181036000830152613f7181613f35565b9050919050565b7f5061757361626c653a2070617573656400000000000000000000000000000000600082015250565b6000613fae601083613344565b9150613fb982613f78565b602082019050919050565b60006020820190508181036000830152613fdd81613fa1565b9050919050565b7f496e636f7272656374207061796d656e74000000000000000000000000000000600082015250565b600061401a601183613344565b915061402582613fe4565b602082019050919050565b600060208201905081810360008301526140498161400d565b9050919050565b7f4d617820737570706c7920726561636865640000000000000000000000000000600082015250565b6000614086601283613344565b915061409182614050565b602082019050919050565b600060208201905081810360008301526140b581614079565b9050919050565b7f4d6178207065722077616c6c6574207265616368656400000000000000000000600082015250565b60006140f2601683613344565b91506140fd826140bc565b602082019050919050565b60006020820190508181036000830152614121816140e5565b9050919050565b7f4e487b7100000000000000000000000000000000000000000000000000000000600052601160045260246000fd5b6000614162826133f4565b915061416d836133f4565b9250827fffffffffffffffffffffffffffffffffffffffffffffffffffffffffffffffff038211156141a2576141a1614128565b5b828201905092915050565b7f4f776e61626c653a2063616c6c6572206973206e6f7420746865206f776e6572600082015250565b60006141e3602083613344565b91506141ee826141ad565b602082019050919050565b60006020820190508181036000830152614212816141d6565b9050919050565b7f4552433732313a207472616e736665722063616c6c6572206973206e6f74206f60008201527f776e6572206e6f7220617070726f766564000000000000000000000000000000602082015250565b6000614275603183613344565b915061428082614219565b604082019050919050565b600060208201905081810360008301526142a481614268565b9050919050565b7f455243373231456e756d657261626c653a206f776e657220696e646578206f7560008201527f74206f6620626f756e6473000000000000000000000000000000000000000000602082015250565b6000614307602b83613344565b9150614312826142ab565b604082019050919050565b60006020820190508181036000830152614336816142fa565b9050919050565b7f455243373231456e756d657261626c653a20676c6f62616c20696e646578206f60008201527f7574206f6620626f756e64730000000000000000000000000000000000000000602082015250565b6000614399602c83613344565b91506143a48261433d565b604082019050919050565b600060208201905081810360008301526143c88161438c565b9050919050565b7f4e487b7100000000000000000000000000000000000000000000000000000000600052603260045260246000fd5b7f4552433732313a206f776e657220717565727920666f72206e6f6e657869737460008201527f656e7420746f6b656e0000000000000000000000000000000000000000000000602082015250565b600061445a602983613344565b9150614465826143fe565b604082019050919050565b600060208201905081810360008301526144898161444d565b9050919050565b7f4552433732313a2062616c616e636520717565727920666f7220746865207a6560008201527f726f206164647265737300000000000000000000000000000000000000000000602082015250565b60006144ec602a83613344565b91506144f782614490565b604082019050919050565b6000602082019050818103600083015261451b816144df565b9050919050565b7f4552433732314d657461646174613a2055524920717565727920666f72206e6f60008201527f6e6578697374656e7420746f6b656e0000000000000000000000000000000000602082015250565b600061457e602f83613344565b915061458982614522565b604082019050919050565b600060208201905081810360008301526145ad81614571565b9050919050565b600081905092915050565b60006145ca82613339565b6145d481856145b4565b93506145e4818560208601613355565b80840191505092915050565b60006145fc82856145bf565b915061460882846145bf565b91508190509392505050565b7f4f776e61626c653a206e6577206f776e657220697320746865207a65726f206160008201527f6464726573730000000000000000000000000000000000000000000000000000602082015250565b6000614670602683613344565b915061467b82614614565b604082019050919050565b6000602082019050818103600083015261469f81614663565b9050919050565b7f496e697469616c697a61626c653a20636f6e7472616374206973206e6f74206960008201527f6e697469616c697a696e67000000000000000000000000000000000000000000602082015250565b6000614702602b83613344565b915061470d826146a6565b604082019050919050565b60006020820190508181036000830152614731816146f5565b9050919050565b7f4552433732313a206f70657261746f7220717565727920666f72206e6f6e657860008201527f697374656e7420746f6b656e0000000000000000000000000000000000000000602082015250565b6000614794602c83613344565b915061479f82614738565b604082019050919050565b600060208201905081810360008301526147c381614787565b9050919050565b7f4552433732313a207472616e736665722066726f6d20696e636f72726563742060008201527f6f776e6572000000000000000000000000000000000000000000000000000000602082015250565b6000614826602583613344565b9150614831826147ca565b604082019050919050565b6000602082019050818103600083015261485581614819565b9050919050565b7f4552433732313a207472616e7366657220746f20746865207a65726f2061646460008201527f7265737300000000000000000000000000000000000000000000000000000000602082015250565b60006148b8602483613344565b91506148c38261485c565b604082019050919050565b600060208201905081810360008301526148e7816148ab565b9050919050565b60006148f9826133f4565b9150614904836133f4565b92508282101561491757614916614128565b5b828203905092915050565b7f5061757361626c653a206e6f7420706175736564000000000000000000000000600082015250565b6000614958601483613344565b915061496382614922565b602082019050919050565b600060208201905081810360008301526149878161494b565b9050919050565b7f4552433732313a20617070726f766520746f2063616c6c657200000000000000600082015250565b60006149c4601983613344565b91506149cf8261498e565b602082019050919050565b600060208201905081810360008301526149f3816149b7565b9050919050565b7f4552433732313a207472616e7366657220746f206e6f6e20455243373231526560008201527f63656976657220696d706c656d656e7465720000000000000000000000000000602082015250565b6000614a56603283613344565b9150614a61826149fa565b604082019050919050565b60006020820190508181036000830152614a8581614a49565b9050919050565b6000614a97826133f4565b91507fffffffffffffffffffffffffffffffffffffffffffffffffffffffffffffffff8203614ac957614ac8614128565b5b600182019050919050565b7f4e487b7100000000000000000000000000000000000000000000000000000000600052601260045260246000fd5b6000614b0e826133f4565b9150614b19836133f4565b925082614b2957614b28614ad4565b5b828204905092915050565b6000614b3f826133f4565b9150614b4a836133f4565b925082614b5a57614b59614ad4565b5b828206905092915050565b600081519050919050565b600082825260208201905092915050565b6000614b8c82614b65565b614b968185614b70565b9350614ba6818560208601613355565b614baf81613388565b840191505092915050565b6000608082019050614bcf6000830187613489565b614bdc6020830186613489565b614be96040830185613723565b8181036060830152614bfb8184614b81565b905095945050505050565b600081519050614c15816132aa565b92915050565b600060208284031215614c3157614c30613274565b5b6000614c3f84828501614c06565b91505092915050565b7f4552433732313a206d696e7420746f20746865207a65726f2061646472657373600082015250565b6000614c7e602083613344565b9150614c8982614c48565b602082019050919050565b60006020820190508181036000830152614cad81614c71565b9050919050565b7f4552433732313a20746f6b656e20616c7265616479206d696e74656400000000600082015250565b6000614cea601c83613344565b9150614cf582614cb4565b602082019050919050565b60006020820190508181036000830152614d1981614cdd565b9050919050565b7f4e487b7100000000000000000000000000000000000000000000000000000000600052603160045260246000fdfea26469706673582212209d3b9c5eeca070ad30aa4ac06b4643e7bcb9536ad8a5410253ce4350132aec7f64736f6c634300080f0033",
  "linkReferences": {},
  "deployedLinkReferences": {}
}